{
	"contracts/NovaClassTicket.sol": {
		"NovaClassTicket": {
			"abi": [
				{
					"inputs": [
						{
							"internalType": "uint256",
							"name": "_passPrice",
							"type": "uint256"
						},
						{
							"internalType": "uint256",
							"name": "_passDurationDays",
							"type": "uint256"
						}
					],
					"stateMutability": "nonpayable",
					"type": "constructor"
				},
				{
					"inputs": [],
					"name": "InsufficientPayment",
					"type": "error"
				},
				{
					"inputs": [],
					"name": "NoAccess",
					"type": "error"
				},
				{
					"inputs": [],
					"name": "OnlyOwner",
					"type": "error"
				},
				{
					"inputs": [],
					"name": "WithdrawalFailed",
					"type": "error"
				},
				{
					"anonymous": false,
					"inputs": [
						{
							"indexed": true,
							"internalType": "address",
							"name": "buyer",
							"type": "address"
						},
						{
							"indexed": false,
							"internalType": "uint256",
							"name": "expiryTime",
							"type": "uint256"
						},
						{
							"indexed": false,
							"internalType": "uint256",
							"name": "pricePaid",
							"type": "uint256"
						}
					],
					"name": "AccessPurchased",
					"type": "event"
				},
				{
					"anonymous": false,
					"inputs": [
						{
							"indexed": false,
							"internalType": "uint256",
							"name": "newDuration",
							"type": "uint256"
						}
					],
					"name": "DurationUpdated",
					"type": "event"
				},
				{
					"anonymous": false,
					"inputs": [
						{
							"indexed": true,
							"internalType": "address",
							"name": "owner",
							"type": "address"
						},
						{
							"indexed": false,
							"internalType": "uint256",
							"name": "amount",
							"type": "uint256"
						}
					],
					"name": "FundsWithdrawn",
					"type": "event"
				},
				{
					"anonymous": false,
					"inputs": [
						{
							"indexed": false,
							"internalType": "uint256",
							"name": "newPrice",
							"type": "uint256"
						}
					],
					"name": "PriceUpdated",
					"type": "event"
				},
				{
					"inputs": [],
					"name": "buyPass",
					"outputs": [],
					"stateMutability": "payable",
					"type": "function"
				},
				{
					"inputs": [],
					"name": "getBalance",
					"outputs": [
						{
							"internalType": "uint256",
							"name": "",
							"type": "uint256"
						}
					],
					"stateMutability": "view",
					"type": "function"
				},
				{
					"inputs": [
						{
							"internalType": "address",
							"name": "user",
							"type": "address"
						}
					],
					"name": "getTimeRemaining",
					"outputs": [
						{
							"internalType": "uint256",
							"name": "",
							"type": "uint256"
						}
					],
					"stateMutability": "view",
					"type": "function"
				},
				{
					"inputs": [
						{
							"internalType": "address",
							"name": "user",
							"type": "address"
						}
					],
					"name": "hasAccess",
					"outputs": [
						{
							"internalType": "bool",
							"name": "",
							"type": "bool"
						}
					],
					"stateMutability": "view",
					"type": "function"
				},
				{
					"inputs": [],
					"name": "myAccess",
					"outputs": [
						{
							"internalType": "bool",
							"name": "",
							"type": "bool"
						}
					],
					"stateMutability": "view",
					"type": "function"
				},
				{
					"inputs": [],
					"name": "owner",
					"outputs": [
						{
							"internalType": "address",
							"name": "",
							"type": "address"
						}
					],
					"stateMutability": "view",
					"type": "function"
				},
				{
					"inputs": [],
					"name": "passDuration",
					"outputs": [
						{
							"internalType": "uint256",
							"name": "",
							"type": "uint256"
						}
					],
					"stateMutability": "view",
					"type": "function"
				},
				{
					"inputs": [
						{
							"internalType": "address",
							"name": "",
							"type": "address"
						}
					],
					"name": "passExpiry",
					"outputs": [
						{
							"internalType": "uint256",
							"name": "",
							"type": "uint256"
						}
					],
					"stateMutability": "view",
					"type": "function"
				},
				{
					"inputs": [],
					"name": "passPrice",
					"outputs": [
						{
							"internalType": "uint256",
							"name": "",
							"type": "uint256"
						}
					],
					"stateMutability": "view",
					"type": "function"
				},
				{
					"inputs": [
						{
							"internalType": "uint256",
							"name": "_newDurationDays",
							"type": "uint256"
						}
					],
					"name": "updateDuration",
					"outputs": [],
					"stateMutability": "nonpayable",
					"type": "function"
				},
				{
					"inputs": [
						{
							"internalType": "uint256",
							"name": "_newPrice",
							"type": "uint256"
						}
					],
					"name": "updatePrice",
					"outputs": [],
					"stateMutability": "nonpayable",
					"type": "function"
				},
				{
					"inputs": [
						{
							"internalType": "uint256",
							"name": "weiAmount",
							"type": "uint256"
						}
					],
					"name": "weiToEther",
					"outputs": [
						{
							"internalType": "uint256",
							"name": "",
							"type": "uint256"
						}
					],
					"stateMutability": "pure",
					"type": "function"
				},
				{
					"inputs": [],
					"name": "withdraw",
					"outputs": [],
					"stateMutability": "nonpayable",
					"type": "function"
				}
			],
			"devdoc": {
				"details": "Time-bound access pass system with expiry mechanism",
				"events": {
					"AccessPurchased(address,uint256,uint256)": {
						"params": {
							"buyer": "Address of the pass purchaser",
							"expiryTime": "Timestamp when the pass expires",
							"pricePaid": "Amount paid for the pass"
						}
					},
					"DurationUpdated(uint256)": {
						"params": {
							"newDuration": "New duration in seconds"
						}
					},
					"FundsWithdrawn(address,uint256)": {
						"params": {
							"amount": "Amount withdrawn",
							"owner": "Address of the owner"
						}
					},
					"PriceUpdated(uint256)": {
						"params": {
							"newPrice": "New price in wei"
						}
					}
				},
				"kind": "dev",
				"methods": {
					"buyPass()": {
						"details": "Extends existing pass if user already has one"
					},
					"constructor": {
						"params": {
							"_passDurationDays": "Duration of pass validity in days",
							"_passPrice": "Price of access pass in wei"
						}
					},
					"getBalance()": {
						"returns": {
							"_0": "uint256 Current balance in wei"
						}
					},
					"getTimeRemaining(address)": {
						"params": {
							"user": "Address to check"
						},
						"returns": {
							"_0": "uint256 Seconds remaining (0 if expired)"
						}
					},
					"hasAccess(address)": {
						"params": {
							"user": "Address to check"
						},
						"returns": {
							"_0": "bool True if user has active access, false otherwise"
						}
					},
					"myAccess()": {
						"returns": {
							"_0": "bool True if caller has active access"
						}
					},
					"updateDuration(uint256)": {
						"params": {
							"_newDurationDays": "New duration in days"
						}
					},
					"updatePrice(uint256)": {
						"params": {
							"_newPrice": "New price in wei"
						}
					},
					"weiToEther(uint256)": {
						"params": {
							"weiAmount": "Amount in wei"
						},
						"returns": {
							"_0": "uint256 Amount in ether (with 18 decimals)"
						}
					}
				},
				"title": "NovaClassTicket",
				"version": 1
			},
			"evm": {
				"assembly": "    /* \"contracts/NovaClassTicket.sol\":229:5673  contract NovaClassTicket {... */\n  mstore(0x40, 0x80)\n    /* \"contracts/NovaClassTicket.sol\":2222:2426  constructor(uint256 _passPrice, uint256 _passDurationDays) {... */\n  callvalue\n  dup1\n  iszero\n  tag_1\n  jumpi\n  revert(0x00, 0x00)\ntag_1:\n  pop\n  mload(0x40)\n  sub(codesize, bytecodeSize)\n  dup1\n  bytecodeSize\n  dup4\n  codecopy\n  dup2\n  dup2\n  add\n  0x40\n  mstore\n  dup2\n  add\n  swap1\n  tag_2\n  swap2\n  swap1\n  tag_3\n  jump\t// in\ntag_2:\n    /* \"contracts/NovaClassTicket.sol\":2299:2309  msg.sender */\n  caller\n    /* \"contracts/NovaClassTicket.sol\":2291:2296  owner */\n  0x02\n  0x00\n    /* \"contracts/NovaClassTicket.sol\":2291:2309  owner = msg.sender */\n  0x0100\n  exp\n  dup2\n  sload\n  dup2\n  0xffffffffffffffffffffffffffffffffffffffff\n  mul\n  not\n  and\n  swap1\n  dup4\n  0xffffffffffffffffffffffffffffffffffffffff\n  and\n  mul\n  or\n  swap1\n  sstore\n  pop\n    /* \"contracts/NovaClassTicket.sol\":2331:2341  _passPrice */\n  dup2\n    /* \"contracts/NovaClassTicket.sol\":2319:2328  passPrice */\n  0x00\n    /* \"contracts/NovaClassTicket.sol\":2319:2341  passPrice = _passPrice */\n  dup2\n  swap1\n  sstore\n  pop\n    /* \"contracts/NovaClassTicket.sol\":2386:2392  1 days */\n  0x015180\n    /* \"contracts/NovaClassTicket.sol\":2366:2383  _passDurationDays */\n  dup2\n    /* \"contracts/NovaClassTicket.sol\":2366:2392  _passDurationDays * 1 days */\n  tag_6\n  swap2\n  swap1\n  tag_7\n  jump\t// in\ntag_6:\n    /* \"contracts/NovaClassTicket.sol\":2351:2363  passDuration */\n  0x01\n    /* \"contracts/NovaClassTicket.sol\":2351:2392  passDuration = _passDurationDays * 1 days */\n  dup2\n  swap1\n  sstore\n  pop\n    /* \"contracts/NovaClassTicket.sol\":2222:2426  constructor(uint256 _passPrice, uint256 _passDurationDays) {... */\n  pop\n  pop\n    /* \"contracts/NovaClassTicket.sol\":229:5673  contract NovaClassTicket {... */\n  jump(tag_8)\n    /* \"#utility.yul\":88:205   */\ntag_10:\n    /* \"#utility.yul\":197:198   */\n  0x00\n    /* \"#utility.yul\":194:195   */\n  0x00\n    /* \"#utility.yul\":187:199   */\n  revert\n    /* \"#utility.yul\":334:411   */\ntag_12:\n    /* \"#utility.yul\":371:378   */\n  0x00\n    /* \"#utility.yul\":400:405   */\n  dup2\n    /* \"#utility.yul\":389:405   */\n  swap1\n  pop\n    /* \"#utility.yul\":334:411   */\n  swap2\n  swap1\n  pop\n  jump\t// out\n    /* \"#utility.yul\":417:539   */\ntag_13:\n    /* \"#utility.yul\":490:514   */\n  tag_22\n    /* \"#utility.yul\":508:513   */\n  dup2\n    /* \"#utility.yul\":490:514   */\n  tag_12\n  jump\t// in\ntag_22:\n    /* \"#utility.yul\":483:488   */\n  dup2\n    /* \"#utility.yul\":480:515   */\n  eq\n    /* \"#utility.yul\":470:533   */\n  tag_23\n  jumpi\n    /* \"#utility.yul\":529:530   */\n  0x00\n    /* \"#utility.yul\":526:527   */\n  0x00\n    /* \"#utility.yul\":519:531   */\n  revert\n    /* \"#utility.yul\":470:533   */\ntag_23:\n    /* \"#utility.yul\":417:539   */\n  pop\n  jump\t// out\n    /* \"#utility.yul\":545:688   */\ntag_14:\n    /* \"#utility.yul\":602:607   */\n  0x00\n    /* \"#utility.yul\":633:639   */\n  dup2\n    /* \"#utility.yul\":627:640   */\n  mload\n    /* \"#utility.yul\":618:640   */\n  swap1\n  pop\n    /* \"#utility.yul\":649:682   */\n  tag_25\n    /* \"#utility.yul\":676:681   */\n  dup2\n    /* \"#utility.yul\":649:682   */\n  tag_13\n  jump\t// in\ntag_25:\n    /* \"#utility.yul\":545:688   */\n  swap3\n  swap2\n  pop\n  pop\n  jump\t// out\n    /* \"#utility.yul\":694:1201   */\ntag_3:\n    /* \"#utility.yul\":773:779   */\n  0x00\n    /* \"#utility.yul\":781:787   */\n  0x00\n    /* \"#utility.yul\":830:832   */\n  0x40\n    /* \"#utility.yul\":818:827   */\n  dup4\n    /* \"#utility.yul\":809:816   */\n  dup6\n    /* \"#utility.yul\":805:828   */\n  sub\n    /* \"#utility.yul\":801:833   */\n  slt\n    /* \"#utility.yul\":798:917   */\n  iszero\n  tag_27\n  jumpi\n    /* \"#utility.yul\":836:915   */\n  tag_28\n  tag_10\n  jump\t// in\ntag_28:\n    /* \"#utility.yul\":798:917   */\ntag_27:\n    /* \"#utility.yul\":956:957   */\n  0x00\n    /* \"#utility.yul\":981:1045   */\n  tag_29\n    /* \"#utility.yul\":1037:1044   */\n  dup6\n    /* \"#utility.yul\":1028:1034   */\n  dup3\n    /* \"#utility.yul\":1017:1026   */\n  dup7\n    /* \"#utility.yul\":1013:1035   */\n  add\n    /* \"#utility.yul\":981:1045   */\n  tag_14\n  jump\t// in\ntag_29:\n    /* \"#utility.yul\":971:1045   */\n  swap3\n  pop\n    /* \"#utility.yul\":927:1055   */\n  pop\n    /* \"#utility.yul\":1094:1096   */\n  0x20\n    /* \"#utility.yul\":1120:1184   */\n  tag_30\n    /* \"#utility.yul\":1176:1183   */\n  dup6\n    /* \"#utility.yul\":1167:1173   */\n  dup3\n    /* \"#utility.yul\":1156:1165   */\n  dup7\n    /* \"#utility.yul\":1152:1174   */\n  add\n    /* \"#utility.yul\":1120:1184   */\n  tag_14\n  jump\t// in\ntag_30:\n    /* \"#utility.yul\":1110:1184   */\n  swap2\n  pop\n    /* \"#utility.yul\":1065:1194   */\n  pop\n    /* \"#utility.yul\":694:1201   */\n  swap3\n  pop\n  swap3\n  swap1\n  pop\n  jump\t// out\n    /* \"#utility.yul\":1207:1387   */\ntag_15:\n    /* \"#utility.yul\":1255:1332   */\n  0x4e487b7100000000000000000000000000000000000000000000000000000000\n    /* \"#utility.yul\":1252:1253   */\n  0x00\n    /* \"#utility.yul\":1245:1333   */\n  mstore\n    /* \"#utility.yul\":1352:1356   */\n  0x11\n    /* \"#utility.yul\":1349:1350   */\n  0x04\n    /* \"#utility.yul\":1342:1357   */\n  mstore\n    /* \"#utility.yul\":1376:1380   */\n  0x24\n    /* \"#utility.yul\":1373:1374   */\n  0x00\n    /* \"#utility.yul\":1366:1381   */\n  revert\n    /* \"#utility.yul\":1393:1803   */\ntag_7:\n    /* \"#utility.yul\":1433:1440   */\n  0x00\n    /* \"#utility.yul\":1456:1476   */\n  tag_33\n    /* \"#utility.yul\":1474:1475   */\n  dup3\n    /* \"#utility.yul\":1456:1476   */\n  tag_12\n  jump\t// in\ntag_33:\n    /* \"#utility.yul\":1451:1476   */\n  swap2\n  pop\n    /* \"#utility.yul\":1490:1510   */\n  tag_34\n    /* \"#utility.yul\":1508:1509   */\n  dup4\n    /* \"#utility.yul\":1490:1510   */\n  tag_12\n  jump\t// in\ntag_34:\n    /* \"#utility.yul\":1485:1510   */\n  swap3\n  pop\n    /* \"#utility.yul\":1545:1546   */\n  dup3\n    /* \"#utility.yul\":1542:1543   */\n  dup3\n    /* \"#utility.yul\":1538:1547   */\n  mul\n    /* \"#utility.yul\":1567:1597   */\n  tag_35\n    /* \"#utility.yul\":1585:1596   */\n  dup2\n    /* \"#utility.yul\":1567:1597   */\n  tag_12\n  jump\t// in\ntag_35:\n    /* \"#utility.yul\":1556:1597   */\n  swap2\n  pop\n    /* \"#utility.yul\":1746:1747   */\n  dup3\n    /* \"#utility.yul\":1737:1744   */\n  dup3\n    /* \"#utility.yul\":1733:1748   */\n  div\n    /* \"#utility.yul\":1730:1731   */\n  dup5\n    /* \"#utility.yul\":1727:1749   */\n  eq\n    /* \"#utility.yul\":1707:1708   */\n  dup4\n    /* \"#utility.yul\":1700:1709   */\n  iszero\n    /* \"#utility.yul\":1680:1763   */\n  or\n    /* \"#utility.yul\":1657:1796   */\n  tag_36\n  jumpi\n    /* \"#utility.yul\":1776:1794   */\n  tag_37\n  tag_15\n  jump\t// in\ntag_37:\n    /* \"#utility.yul\":1657:1796   */\ntag_36:\n    /* \"#utility.yul\":1441:1803   */\n  pop\n    /* \"#utility.yul\":1393:1803   */\n  swap3\n  swap2\n  pop\n  pop\n  jump\t// out\n    /* \"contracts/NovaClassTicket.sol\":229:5673  contract NovaClassTicket {... */\ntag_8:\n  dataSize(sub_0)\n  dup1\n  dataOffset(sub_0)\n  0x00\n  codecopy\n  0x00\n  return\nstop\n\nsub_0: assembly {\n        /* \"contracts/NovaClassTicket.sol\":229:5673  contract NovaClassTicket {... */\n      mstore(0x40, 0x80)\n      jumpi(tag_1, lt(calldatasize, 0x04))\n      shr(0xe0, calldataload(0x00))\n      dup1\n      0x8d6cc56d\n      gt\n      tag_15\n      jumpi\n      dup1\n      0xca3286f5\n      gt\n      tag_16\n      jumpi\n      dup1\n      0xca3286f5\n      eq\n      tag_11\n      jumpi\n      dup1\n      0xd0eff891\n      eq\n      tag_12\n      jumpi\n      dup1\n      0xf5f7836c\n      eq\n      tag_13\n      jumpi\n      dup1\n      0xf87de02d\n      eq\n      tag_14\n      jumpi\n      jump(tag_1)\n    tag_16:\n      dup1\n      0x8d6cc56d\n      eq\n      tag_8\n      jumpi\n      dup1\n      0x8da5cb5b\n      eq\n      tag_9\n      jumpi\n      dup1\n      0x95a078e8\n      eq\n      tag_10\n      jumpi\n      jump(tag_1)\n    tag_15:\n      dup1\n      0x0b0ad26a\n      eq\n      tag_2\n      jumpi\n      dup1\n      0x12065fe0\n      eq\n      tag_3\n      jumpi\n      dup1\n      0x1b50ad09\n      eq\n      tag_4\n      jumpi\n      dup1\n      0x26484705\n      eq\n      tag_5\n      jumpi\n      dup1\n      0x347594ed\n      eq\n      tag_6\n      jumpi\n      dup1\n      0x3ccfd60b\n      eq\n      tag_7\n      jumpi\n    tag_1:\n      revert(0x00, 0x00)\n        /* \"contracts/NovaClassTicket.sol\":3843:4054  function getTimeRemaining(address user) public view returns (uint256) {... */\n    tag_2:\n      callvalue\n      dup1\n      iszero\n      tag_17\n      jumpi\n      revert(0x00, 0x00)\n    tag_17:\n      pop\n      tag_18\n      0x04\n      dup1\n      calldatasize\n      sub\n      dup2\n      add\n      swap1\n      tag_19\n      swap2\n      swap1\n      tag_20\n      jump\t// in\n    tag_19:\n      tag_21\n      jump\t// in\n    tag_18:\n      mload(0x40)\n      tag_22\n      swap2\n      swap1\n      tag_23\n      jump\t// in\n    tag_22:\n      mload(0x40)\n      dup1\n      swap2\n      sub\n      swap1\n      return\n        /* \"contracts/NovaClassTicket.sol\":5243:5342  function getBalance() external view returns (uint256) {... */\n    tag_3:\n      callvalue\n      dup1\n      iszero\n      tag_24\n      jumpi\n      revert(0x00, 0x00)\n    tag_24:\n      pop\n      tag_25\n      tag_26\n      jump\t// in\n    tag_25:\n      mload(0x40)\n      tag_27\n      swap2\n      swap1\n      tag_23\n      jump\t// in\n    tag_27:\n      mload(0x40)\n      dup1\n      swap2\n      sub\n      swap1\n      return\n        /* \"contracts/NovaClassTicket.sol\":4670:4840  function updateDuration(uint256 _newDurationDays) external onlyOwner {... */\n    tag_4:\n      callvalue\n      dup1\n      iszero\n      tag_28\n      jumpi\n      revert(0x00, 0x00)\n    tag_28:\n      pop\n      tag_29\n      0x04\n      dup1\n      calldatasize\n      sub\n      dup2\n      add\n      swap1\n      tag_30\n      swap2\n      swap1\n      tag_31\n      jump\t// in\n    tag_30:\n      tag_32\n      jump\t// in\n    tag_29:\n      stop\n        /* \"contracts/NovaClassTicket.sol\":669:714  mapping(address => uint256) public passExpiry */\n    tag_5:\n      callvalue\n      dup1\n      iszero\n      tag_33\n      jumpi\n      revert(0x00, 0x00)\n    tag_33:\n      pop\n      tag_34\n      0x04\n      dup1\n      calldatasize\n      sub\n      dup2\n      add\n      swap1\n      tag_35\n      swap2\n      swap1\n      tag_20\n      jump\t// in\n    tag_35:\n      tag_36\n      jump\t// in\n    tag_34:\n      mload(0x40)\n      tag_37\n      swap2\n      swap1\n      tag_23\n      jump\t// in\n    tag_37:\n      mload(0x40)\n      dup1\n      swap2\n      sub\n      swap1\n      return\n        /* \"contracts/NovaClassTicket.sol\":4169:4263  function myAccess() external view returns (bool) {... */\n    tag_6:\n      callvalue\n      dup1\n      iszero\n      tag_38\n      jumpi\n      revert(0x00, 0x00)\n    tag_38:\n      pop\n      tag_39\n      tag_40\n      jump\t// in\n    tag_39:\n      mload(0x40)\n      tag_41\n      swap2\n      swap1\n      tag_42\n      jump\t// in\n    tag_41:\n      mload(0x40)\n      dup1\n      swap2\n      sub\n      swap1\n      return\n        /* \"contracts/NovaClassTicket.sol\":4901:5149  function withdraw() external onlyOwner {... */\n    tag_7:\n      callvalue\n      dup1\n      iszero\n      tag_43\n      jumpi\n      revert(0x00, 0x00)\n    tag_43:\n      pop\n      tag_44\n      tag_45\n      jump\t// in\n    tag_44:\n      stop\n        /* \"contracts/NovaClassTicket.sol\":4419:4554  function updatePrice(uint256 _newPrice) external onlyOwner {... */\n    tag_8:\n      callvalue\n      dup1\n      iszero\n      tag_46\n      jumpi\n      revert(0x00, 0x00)\n    tag_46:\n      pop\n      tag_47\n      0x04\n      dup1\n      calldatasize\n      sub\n      dup2\n      add\n      swap1\n      tag_48\n      swap2\n      swap1\n      tag_31\n      jump\t// in\n    tag_48:\n      tag_49\n      jump\t// in\n    tag_47:\n      stop\n        /* \"contracts/NovaClassTicket.sol\":571:591  address public owner */\n    tag_9:\n      callvalue\n      dup1\n      iszero\n      tag_50\n      jumpi\n      revert(0x00, 0x00)\n    tag_50:\n      pop\n      tag_51\n      tag_52\n      jump\t// in\n    tag_51:\n      mload(0x40)\n      tag_53\n      swap2\n      swap1\n      tag_54\n      jump\t// in\n    tag_53:\n      mload(0x40)\n      dup1\n      swap2\n      sub\n      swap1\n      return\n        /* \"contracts/NovaClassTicket.sol\":3569:3687  function hasAccess(address user) public view returns (bool) {... */\n    tag_10:\n      callvalue\n      dup1\n      iszero\n      tag_55\n      jumpi\n      revert(0x00, 0x00)\n    tag_55:\n      pop\n      tag_56\n      0x04\n      dup1\n      calldatasize\n      sub\n      dup2\n      add\n      swap1\n      tag_57\n      swap2\n      swap1\n      tag_20\n      jump\t// in\n    tag_57:\n      tag_58\n      jump\t// in\n    tag_56:\n      mload(0x40)\n      tag_59\n      swap2\n      swap1\n      tag_42\n      jump\t// in\n    tag_59:\n      mload(0x40)\n      dup1\n      swap2\n      sub\n      swap1\n      return\n        /* \"contracts/NovaClassTicket.sol\":377:401  uint256 public passPrice */\n    tag_11:\n      callvalue\n      dup1\n      iszero\n      tag_60\n      jumpi\n      revert(0x00, 0x00)\n    tag_60:\n      pop\n      tag_61\n      tag_62\n      jump\t// in\n    tag_61:\n      mload(0x40)\n      tag_63\n      swap2\n      swap1\n      tag_23\n      jump\t// in\n    tag_63:\n      mload(0x40)\n      dup1\n      swap2\n      sub\n      swap1\n      return\n        /* \"contracts/NovaClassTicket.sol\":5559:5671  function weiToEther(uint256 weiAmount) public pure returns (uint256) {... */\n    tag_12:\n      callvalue\n      dup1\n      iszero\n      tag_64\n      jumpi\n      revert(0x00, 0x00)\n    tag_64:\n      pop\n      tag_65\n      0x04\n      dup1\n      calldatasize\n      sub\n      dup2\n      add\n      swap1\n      tag_66\n      swap2\n      swap1\n      tag_31\n      jump\t// in\n    tag_66:\n      tag_67\n      jump\t// in\n    tag_65:\n      mload(0x40)\n      tag_68\n      swap2\n      swap1\n      tag_23\n      jump\t// in\n    tag_68:\n      mload(0x40)\n      dup1\n      swap2\n      sub\n      swap1\n      return\n        /* \"contracts/NovaClassTicket.sol\":2588:3400  function buyPass() external payable {... */\n    tag_13:\n      tag_69\n      tag_70\n      jump\t// in\n    tag_69:\n      stop\n        /* \"contracts/NovaClassTicket.sol\":494:521  uint256 public passDuration */\n    tag_14:\n      callvalue\n      dup1\n      iszero\n      tag_71\n      jumpi\n      revert(0x00, 0x00)\n    tag_71:\n      pop\n      tag_72\n      tag_73\n      jump\t// in\n    tag_72:\n      mload(0x40)\n      tag_74\n      swap2\n      swap1\n      tag_23\n      jump\t// in\n    tag_74:\n      mload(0x40)\n      dup1\n      swap2\n      sub\n      swap1\n      return\n        /* \"contracts/NovaClassTicket.sol\":3843:4054  function getTimeRemaining(address user) public view returns (uint256) {... */\n    tag_21:\n        /* \"contracts/NovaClassTicket.sol\":3904:3911  uint256 */\n      0x00\n        /* \"contracts/NovaClassTicket.sol\":3947:3962  block.timestamp */\n      timestamp\n        /* \"contracts/NovaClassTicket.sol\":3927:3937  passExpiry */\n      0x03\n        /* \"contracts/NovaClassTicket.sol\":3927:3943  passExpiry[user] */\n      0x00\n        /* \"contracts/NovaClassTicket.sol\":3938:3942  user */\n      dup5\n        /* \"contracts/NovaClassTicket.sol\":3927:3943  passExpiry[user] */\n      0xffffffffffffffffffffffffffffffffffffffff\n      and\n      0xffffffffffffffffffffffffffffffffffffffff\n      and\n      dup2\n      mstore\n      0x20\n      add\n      swap1\n      dup2\n      mstore\n      0x20\n      add\n      0x00\n      keccak256\n      sload\n        /* \"contracts/NovaClassTicket.sol\":3927:3962  passExpiry[user] <= block.timestamp */\n      gt\n        /* \"contracts/NovaClassTicket.sol\":3923:3997  if (passExpiry[user] <= block.timestamp) {... */\n      tag_76\n      jumpi\n        /* \"contracts/NovaClassTicket.sol\":3985:3986  0 */\n      0x00\n        /* \"contracts/NovaClassTicket.sol\":3978:3986  return 0 */\n      swap1\n      pop\n      jump(tag_75)\n        /* \"contracts/NovaClassTicket.sol\":3923:3997  if (passExpiry[user] <= block.timestamp) {... */\n    tag_76:\n        /* \"contracts/NovaClassTicket.sol\":4032:4047  block.timestamp */\n      timestamp\n        /* \"contracts/NovaClassTicket.sol\":4013:4023  passExpiry */\n      0x03\n        /* \"contracts/NovaClassTicket.sol\":4013:4029  passExpiry[user] */\n      0x00\n        /* \"contracts/NovaClassTicket.sol\":4024:4028  user */\n      dup5\n        /* \"contracts/NovaClassTicket.sol\":4013:4029  passExpiry[user] */\n      0xffffffffffffffffffffffffffffffffffffffff\n      and\n      0xffffffffffffffffffffffffffffffffffffffff\n      and\n      dup2\n      mstore\n      0x20\n      add\n      swap1\n      dup2\n      mstore\n      0x20\n      add\n      0x00\n      keccak256\n      sload\n        /* \"contracts/NovaClassTicket.sol\":4013:4047  passExpiry[user] - block.timestamp */\n      tag_77\n      swap2\n      swap1\n      tag_78\n      jump\t// in\n    tag_77:\n        /* \"contracts/NovaClassTicket.sol\":4006:4047  return passExpiry[user] - block.timestamp */\n      swap1\n      pop\n        /* \"contracts/NovaClassTicket.sol\":3843:4054  function getTimeRemaining(address user) public view returns (uint256) {... */\n    tag_75:\n      swap2\n      swap1\n      pop\n      jump\t// out\n        /* \"contracts/NovaClassTicket.sol\":5243:5342  function getBalance() external view returns (uint256) {... */\n    tag_26:\n        /* \"contracts/NovaClassTicket.sol\":5288:5295  uint256 */\n      0x00\n        /* \"contracts/NovaClassTicket.sol\":5314:5335  address(this).balance */\n      selfbalance\n        /* \"contracts/NovaClassTicket.sol\":5307:5335  return address(this).balance */\n      swap1\n      pop\n        /* \"contracts/NovaClassTicket.sol\":5243:5342  function getBalance() external view returns (uint256) {... */\n      swap1\n      jump\t// out\n        /* \"contracts/NovaClassTicket.sol\":4670:4840  function updateDuration(uint256 _newDurationDays) external onlyOwner {... */\n    tag_32:\n        /* \"contracts/NovaClassTicket.sol\":1933:1938  owner */\n      0x02\n      0x00\n      swap1\n      sload\n      swap1\n      0x0100\n      exp\n      swap1\n      div\n      0xffffffffffffffffffffffffffffffffffffffff\n      and\n        /* \"contracts/NovaClassTicket.sol\":1919:1938  msg.sender != owner */\n      0xffffffffffffffffffffffffffffffffffffffff\n      and\n        /* \"contracts/NovaClassTicket.sol\":1919:1929  msg.sender */\n      caller\n        /* \"contracts/NovaClassTicket.sol\":1919:1938  msg.sender != owner */\n      0xffffffffffffffffffffffffffffffffffffffff\n      and\n      eq\n        /* \"contracts/NovaClassTicket.sol\":1915:1958  if (msg.sender != owner) revert OnlyOwner() */\n      tag_81\n      jumpi\n        /* \"contracts/NovaClassTicket.sol\":1947:1958  OnlyOwner() */\n      mload(0x40)\n      0x5fc483c500000000000000000000000000000000000000000000000000000000\n      dup2\n      mstore\n      0x04\n      add\n      mload(0x40)\n      dup1\n      swap2\n      sub\n      swap1\n      revert\n        /* \"contracts/NovaClassTicket.sol\":1915:1958  if (msg.sender != owner) revert OnlyOwner() */\n    tag_81:\n        /* \"contracts/NovaClassTicket.sol\":4783:4789  1 days */\n      0x015180\n        /* \"contracts/NovaClassTicket.sol\":4764:4780  _newDurationDays */\n      dup2\n        /* \"contracts/NovaClassTicket.sol\":4764:4789  _newDurationDays * 1 days */\n      tag_83\n      swap2\n      swap1\n      tag_84\n      jump\t// in\n    tag_83:\n        /* \"contracts/NovaClassTicket.sol\":4749:4761  passDuration */\n      0x01\n        /* \"contracts/NovaClassTicket.sol\":4749:4789  passDuration = _newDurationDays * 1 days */\n      dup2\n      swap1\n      sstore\n      pop\n        /* \"contracts/NovaClassTicket.sol\":4804:4833  DurationUpdated(passDuration) */\n      0x91abcc2d6823e3a3f11d31b208dd3065d2c6a791f1c7c9fe96a42ce12897eac5\n        /* \"contracts/NovaClassTicket.sol\":4820:4832  passDuration */\n      sload(0x01)\n        /* \"contracts/NovaClassTicket.sol\":4804:4833  DurationUpdated(passDuration) */\n      mload(0x40)\n      tag_85\n      swap2\n      swap1\n      tag_23\n      jump\t// in\n    tag_85:\n      mload(0x40)\n      dup1\n      swap2\n      sub\n      swap1\n      log1\n        /* \"contracts/NovaClassTicket.sol\":4670:4840  function updateDuration(uint256 _newDurationDays) external onlyOwner {... */\n      pop\n      jump\t// out\n        /* \"contracts/NovaClassTicket.sol\":669:714  mapping(address => uint256) public passExpiry */\n    tag_36:\n      mstore(0x20, 0x03)\n      dup1\n      0x00\n      mstore\n      keccak256(0x00, 0x40)\n      0x00\n      swap2\n      pop\n      swap1\n      pop\n      sload\n      dup2\n      jump\t// out\n        /* \"contracts/NovaClassTicket.sol\":4169:4263  function myAccess() external view returns (bool) {... */\n    tag_40:\n        /* \"contracts/NovaClassTicket.sol\":4212:4216  bool */\n      0x00\n        /* \"contracts/NovaClassTicket.sol\":4235:4256  hasAccess(msg.sender) */\n      tag_87\n        /* \"contracts/NovaClassTicket.sol\":4245:4255  msg.sender */\n      caller\n        /* \"contracts/NovaClassTicket.sol\":4235:4244  hasAccess */\n      tag_58\n        /* \"contracts/NovaClassTicket.sol\":4235:4256  hasAccess(msg.sender) */\n      jump\t// in\n    tag_87:\n        /* \"contracts/NovaClassTicket.sol\":4228:4256  return hasAccess(msg.sender) */\n      swap1\n      pop\n        /* \"contracts/NovaClassTicket.sol\":4169:4263  function myAccess() external view returns (bool) {... */\n      swap1\n      jump\t// out\n        /* \"contracts/NovaClassTicket.sol\":4901:5149  function withdraw() external onlyOwner {... */\n    tag_45:\n        /* \"contracts/NovaClassTicket.sol\":1933:1938  owner */\n      0x02\n      0x00\n      swap1\n      sload\n      swap1\n      0x0100\n      exp\n      swap1\n      div\n      0xffffffffffffffffffffffffffffffffffffffff\n      and\n        /* \"contracts/NovaClassTicket.sol\":1919:1938  msg.sender != owner */\n      0xffffffffffffffffffffffffffffffffffffffff\n      and\n        /* \"contracts/NovaClassTicket.sol\":1919:1929  msg.sender */\n      caller\n        /* \"contracts/NovaClassTicket.sol\":1919:1938  msg.sender != owner */\n      0xffffffffffffffffffffffffffffffffffffffff\n      and\n      eq\n        /* \"contracts/NovaClassTicket.sol\":1915:1958  if (msg.sender != owner) revert OnlyOwner() */\n      tag_89\n      jumpi\n        /* \"contracts/NovaClassTicket.sol\":1947:1958  OnlyOwner() */\n      mload(0x40)\n      0x5fc483c500000000000000000000000000000000000000000000000000000000\n      dup2\n      mstore\n      0x04\n      add\n      mload(0x40)\n      dup1\n      swap2\n      sub\n      swap1\n      revert\n        /* \"contracts/NovaClassTicket.sol\":1915:1958  if (msg.sender != owner) revert OnlyOwner() */\n    tag_89:\n        /* \"contracts/NovaClassTicket.sol\":4950:4965  uint256 balance */\n      0x00\n        /* \"contracts/NovaClassTicket.sol\":4968:4989  address(this).balance */\n      selfbalance\n        /* \"contracts/NovaClassTicket.sol\":4950:4989  uint256 balance = address(this).balance */\n      swap1\n      pop\n        /* \"contracts/NovaClassTicket.sol\":5000:5012  bool success */\n      0x00\n        /* \"contracts/NovaClassTicket.sol\":5018:5023  owner */\n      0x02\n      0x00\n      swap1\n      sload\n      swap1\n      0x0100\n      exp\n      swap1\n      div\n      0xffffffffffffffffffffffffffffffffffffffff\n      and\n        /* \"contracts/NovaClassTicket.sol\":5018:5028  owner.call */\n      0xffffffffffffffffffffffffffffffffffffffff\n      and\n        /* \"contracts/NovaClassTicket.sol\":5036:5043  balance */\n      dup3\n        /* \"contracts/NovaClassTicket.sol\":5018:5048  owner.call{value: balance}(\"\") */\n      mload(0x40)\n      tag_91\n      swap1\n      tag_92\n      jump\t// in\n    tag_91:\n      0x00\n      mload(0x40)\n      dup1\n      dup4\n      sub\n      dup2\n      dup6\n      dup8\n      gas\n      call\n      swap3\n      pop\n      pop\n      pop\n      returndatasize\n      dup1\n      0x00\n      dup2\n      eq\n      tag_95\n      jumpi\n      mload(0x40)\n      swap2\n      pop\n      and(add(returndatasize, 0x3f), not(0x1f))\n      dup3\n      add\n      0x40\n      mstore\n      returndatasize\n      dup3\n      mstore\n      returndatasize\n      0x00\n      0x20\n      dup5\n      add\n      returndatacopy\n      jump(tag_94)\n    tag_95:\n      0x60\n      swap2\n      pop\n    tag_94:\n      pop\n        /* \"contracts/NovaClassTicket.sol\":4999:5048  (bool success, ) = owner.call{value: balance}(\"\") */\n      pop\n      swap1\n      pop\n        /* \"contracts/NovaClassTicket.sol\":5063:5070  success */\n      dup1\n        /* \"contracts/NovaClassTicket.sol\":5058:5097  if (!success) revert WithdrawalFailed() */\n      tag_96\n      jumpi\n        /* \"contracts/NovaClassTicket.sol\":5079:5097  WithdrawalFailed() */\n      mload(0x40)\n      0x27fcd9d100000000000000000000000000000000000000000000000000000000\n      dup2\n      mstore\n      0x04\n      add\n      mload(0x40)\n      dup1\n      swap2\n      sub\n      swap1\n      revert\n        /* \"contracts/NovaClassTicket.sol\":5058:5097  if (!success) revert WithdrawalFailed() */\n    tag_96:\n        /* \"contracts/NovaClassTicket.sol\":5127:5132  owner */\n      0x02\n      0x00\n      swap1\n      sload\n      swap1\n      0x0100\n      exp\n      swap1\n      div\n      0xffffffffffffffffffffffffffffffffffffffff\n      and\n        /* \"contracts/NovaClassTicket.sol\":5112:5142  FundsWithdrawn(owner, balance) */\n      0xffffffffffffffffffffffffffffffffffffffff\n      and\n      0xeaff4b37086828766ad3268786972c0cd24259d4c87a80f9d3963a3c3d999b0d\n        /* \"contracts/NovaClassTicket.sol\":5134:5141  balance */\n      dup4\n        /* \"contracts/NovaClassTicket.sol\":5112:5142  FundsWithdrawn(owner, balance) */\n      mload(0x40)\n      tag_97\n      swap2\n      swap1\n      tag_23\n      jump\t// in\n    tag_97:\n      mload(0x40)\n      dup1\n      swap2\n      sub\n      swap1\n      log2\n        /* \"contracts/NovaClassTicket.sol\":4940:5149  {... */\n      pop\n      pop\n        /* \"contracts/NovaClassTicket.sol\":4901:5149  function withdraw() external onlyOwner {... */\n      jump\t// out\n        /* \"contracts/NovaClassTicket.sol\":4419:4554  function updatePrice(uint256 _newPrice) external onlyOwner {... */\n    tag_49:\n        /* \"contracts/NovaClassTicket.sol\":1933:1938  owner */\n      0x02\n      0x00\n      swap1\n      sload\n      swap1\n      0x0100\n      exp\n      swap1\n      div\n      0xffffffffffffffffffffffffffffffffffffffff\n      and\n        /* \"contracts/NovaClassTicket.sol\":1919:1938  msg.sender != owner */\n      0xffffffffffffffffffffffffffffffffffffffff\n      and\n        /* \"contracts/NovaClassTicket.sol\":1919:1929  msg.sender */\n      caller\n        /* \"contracts/NovaClassTicket.sol\":1919:1938  msg.sender != owner */\n      0xffffffffffffffffffffffffffffffffffffffff\n      and\n      eq\n        /* \"contracts/NovaClassTicket.sol\":1915:1958  if (msg.sender != owner) revert OnlyOwner() */\n      tag_99\n      jumpi\n        /* \"contracts/NovaClassTicket.sol\":1947:1958  OnlyOwner() */\n      mload(0x40)\n      0x5fc483c500000000000000000000000000000000000000000000000000000000\n      dup2\n      mstore\n      0x04\n      add\n      mload(0x40)\n      dup1\n      swap2\n      sub\n      swap1\n      revert\n        /* \"contracts/NovaClassTicket.sol\":1915:1958  if (msg.sender != owner) revert OnlyOwner() */\n    tag_99:\n        /* \"contracts/NovaClassTicket.sol\":4500:4509  _newPrice */\n      dup1\n        /* \"contracts/NovaClassTicket.sol\":4488:4497  passPrice */\n      0x00\n        /* \"contracts/NovaClassTicket.sol\":4488:4509  passPrice = _newPrice */\n      dup2\n      swap1\n      sstore\n      pop\n        /* \"contracts/NovaClassTicket.sol\":4524:4547  PriceUpdated(_newPrice) */\n      0x66cbca4f3c64fecf1dcb9ce094abcf7f68c3450a1d4e3a8e917dd621edb4ebe0\n        /* \"contracts/NovaClassTicket.sol\":4537:4546  _newPrice */\n      dup2\n        /* \"contracts/NovaClassTicket.sol\":4524:4547  PriceUpdated(_newPrice) */\n      mload(0x40)\n      tag_101\n      swap2\n      swap1\n      tag_23\n      jump\t// in\n    tag_101:\n      mload(0x40)\n      dup1\n      swap2\n      sub\n      swap1\n      log1\n        /* \"contracts/NovaClassTicket.sol\":4419:4554  function updatePrice(uint256 _newPrice) external onlyOwner {... */\n      pop\n      jump\t// out\n        /* \"contracts/NovaClassTicket.sol\":571:591  address public owner */\n    tag_52:\n      0x02\n      0x00\n      swap1\n      sload\n      swap1\n      0x0100\n      exp\n      swap1\n      div\n      0xffffffffffffffffffffffffffffffffffffffff\n      and\n      dup2\n      jump\t// out\n        /* \"contracts/NovaClassTicket.sol\":3569:3687  function hasAccess(address user) public view returns (bool) {... */\n    tag_58:\n        /* \"contracts/NovaClassTicket.sol\":3623:3627  bool */\n      0x00\n        /* \"contracts/NovaClassTicket.sol\":3665:3680  block.timestamp */\n      timestamp\n        /* \"contracts/NovaClassTicket.sol\":3646:3656  passExpiry */\n      0x03\n        /* \"contracts/NovaClassTicket.sol\":3646:3662  passExpiry[user] */\n      0x00\n        /* \"contracts/NovaClassTicket.sol\":3657:3661  user */\n      dup5\n        /* \"contracts/NovaClassTicket.sol\":3646:3662  passExpiry[user] */\n      0xffffffffffffffffffffffffffffffffffffffff\n      and\n      0xffffffffffffffffffffffffffffffffffffffff\n      and\n      dup2\n      mstore\n      0x20\n      add\n      swap1\n      dup2\n      mstore\n      0x20\n      add\n      0x00\n      keccak256\n      sload\n        /* \"contracts/NovaClassTicket.sol\":3646:3680  passExpiry[user] > block.timestamp */\n      gt\n        /* \"contracts/NovaClassTicket.sol\":3639:3680  return passExpiry[user] > block.timestamp */\n      swap1\n      pop\n        /* \"contracts/NovaClassTicket.sol\":3569:3687  function hasAccess(address user) public view returns (bool) {... */\n      swap2\n      swap1\n      pop\n      jump\t// out\n        /* \"contracts/NovaClassTicket.sol\":377:401  uint256 public passPrice */\n    tag_62:\n      sload(0x00)\n      dup2\n      jump\t// out\n        /* \"contracts/NovaClassTicket.sol\":5559:5671  function weiToEther(uint256 weiAmount) public pure returns (uint256) {... */\n    tag_67:\n        /* \"contracts/NovaClassTicket.sol\":5619:5626  uint256 */\n      0x00\n        /* \"contracts/NovaClassTicket.sol\":5657:5664  1 ether */\n      0x0de0b6b3a7640000\n        /* \"contracts/NovaClassTicket.sol\":5645:5654  weiAmount */\n      dup3\n        /* \"contracts/NovaClassTicket.sol\":5645:5664  weiAmount / 1 ether */\n      tag_104\n      swap2\n      swap1\n      tag_105\n      jump\t// in\n    tag_104:\n        /* \"contracts/NovaClassTicket.sol\":5638:5664  return weiAmount / 1 ether */\n      swap1\n      pop\n        /* \"contracts/NovaClassTicket.sol\":5559:5671  function weiToEther(uint256 weiAmount) public pure returns (uint256) {... */\n      swap2\n      swap1\n      pop\n      jump\t// out\n        /* \"contracts/NovaClassTicket.sol\":2588:3400  function buyPass() external payable {... */\n    tag_70:\n        /* \"contracts/NovaClassTicket.sol\":2650:2659  passPrice */\n      sload(0x00)\n        /* \"contracts/NovaClassTicket.sol\":2638:2647  msg.value */\n      callvalue\n        /* \"contracts/NovaClassTicket.sol\":2638:2659  msg.value < passPrice */\n      lt\n        /* \"contracts/NovaClassTicket.sol\":2634:2689  if (msg.value < passPrice) revert InsufficientPayment() */\n      iszero\n      tag_107\n      jumpi\n        /* \"contracts/NovaClassTicket.sol\":2668:2689  InsufficientPayment() */\n      mload(0x40)\n      0xcd1c886700000000000000000000000000000000000000000000000000000000\n      dup2\n      mstore\n      0x04\n      add\n      mload(0x40)\n      dup1\n      swap2\n      sub\n      swap1\n      revert\n        /* \"contracts/NovaClassTicket.sol\":2634:2689  if (msg.value < passPrice) revert InsufficientPayment() */\n    tag_107:\n        /* \"contracts/NovaClassTicket.sol\":2708:2725  uint256 newExpiry */\n      0x00\n        /* \"contracts/NovaClassTicket.sol\":2886:2901  block.timestamp */\n      timestamp\n        /* \"contracts/NovaClassTicket.sol\":2861:2871  passExpiry */\n      0x03\n        /* \"contracts/NovaClassTicket.sol\":2861:2883  passExpiry[msg.sender] */\n      0x00\n        /* \"contracts/NovaClassTicket.sol\":2872:2882  msg.sender */\n      caller\n        /* \"contracts/NovaClassTicket.sol\":2861:2883  passExpiry[msg.sender] */\n      0xffffffffffffffffffffffffffffffffffffffff\n      and\n      0xffffffffffffffffffffffffffffffffffffffff\n      and\n      dup2\n      mstore\n      0x20\n      add\n      swap1\n      dup2\n      mstore\n      0x20\n      add\n      0x00\n      keccak256\n      sload\n        /* \"contracts/NovaClassTicket.sol\":2861:2901  passExpiry[msg.sender] > block.timestamp */\n      gt\n        /* \"contracts/NovaClassTicket.sol\":2857:3050  if (passExpiry[msg.sender] > block.timestamp) {... */\n      iszero\n      tag_108\n      jumpi\n        /* \"contracts/NovaClassTicket.sol\":2954:2966  passDuration */\n      sload(0x01)\n        /* \"contracts/NovaClassTicket.sol\":2929:2939  passExpiry */\n      0x03\n        /* \"contracts/NovaClassTicket.sol\":2929:2951  passExpiry[msg.sender] */\n      0x00\n        /* \"contracts/NovaClassTicket.sol\":2940:2950  msg.sender */\n      caller\n        /* \"contracts/NovaClassTicket.sol\":2929:2951  passExpiry[msg.sender] */\n      0xffffffffffffffffffffffffffffffffffffffff\n      and\n      0xffffffffffffffffffffffffffffffffffffffff\n      and\n      dup2\n      mstore\n      0x20\n      add\n      swap1\n      dup2\n      mstore\n      0x20\n      add\n      0x00\n      keccak256\n      sload\n        /* \"contracts/NovaClassTicket.sol\":2929:2966  passExpiry[msg.sender] + passDuration */\n      tag_109\n      swap2\n      swap1\n      tag_110\n      jump\t// in\n    tag_109:\n        /* \"contracts/NovaClassTicket.sol\":2917:2966  newExpiry = passExpiry[msg.sender] + passDuration */\n      swap1\n      pop\n        /* \"contracts/NovaClassTicket.sol\":2857:3050  if (passExpiry[msg.sender] > block.timestamp) {... */\n      jump(tag_111)\n    tag_108:\n        /* \"contracts/NovaClassTicket.sol\":3027:3039  passDuration */\n      sload(0x01)\n        /* \"contracts/NovaClassTicket.sol\":3009:3024  block.timestamp */\n      timestamp\n        /* \"contracts/NovaClassTicket.sol\":3009:3039  block.timestamp + passDuration */\n      tag_112\n      swap2\n      swap1\n      tag_110\n      jump\t// in\n    tag_112:\n        /* \"contracts/NovaClassTicket.sol\":2997:3039  newExpiry = block.timestamp + passDuration */\n      swap1\n      pop\n        /* \"contracts/NovaClassTicket.sol\":2857:3050  if (passExpiry[msg.sender] > block.timestamp) {... */\n    tag_111:\n        /* \"contracts/NovaClassTicket.sol\":3093:3102  newExpiry */\n      dup1\n        /* \"contracts/NovaClassTicket.sol\":3068:3078  passExpiry */\n      0x03\n        /* \"contracts/NovaClassTicket.sol\":3068:3090  passExpiry[msg.sender] */\n      0x00\n        /* \"contracts/NovaClassTicket.sol\":3079:3089  msg.sender */\n      caller\n        /* \"contracts/NovaClassTicket.sol\":3068:3090  passExpiry[msg.sender] */\n      0xffffffffffffffffffffffffffffffffffffffff\n      and\n      0xffffffffffffffffffffffffffffffffffffffff\n      and\n      dup2\n      mstore\n      0x20\n      add\n      swap1\n      dup2\n      mstore\n      0x20\n      add\n      0x00\n      keccak256\n        /* \"contracts/NovaClassTicket.sol\":3068:3102  passExpiry[msg.sender] = newExpiry */\n      dup2\n      swap1\n      sstore\n      pop\n        /* \"contracts/NovaClassTicket.sol\":3142:3152  msg.sender */\n      caller\n        /* \"contracts/NovaClassTicket.sol\":3126:3175  AccessPurchased(msg.sender, newExpiry, msg.value) */\n      0xffffffffffffffffffffffffffffffffffffffff\n      and\n      0x2f60a1b621accecc3d569c39cabeb0d50d01ebd273e052479f9f539c6abeaa73\n        /* \"contracts/NovaClassTicket.sol\":3154:3163  newExpiry */\n      dup3\n        /* \"contracts/NovaClassTicket.sol\":3165:3174  msg.value */\n      callvalue\n        /* \"contracts/NovaClassTicket.sol\":3126:3175  AccessPurchased(msg.sender, newExpiry, msg.value) */\n      mload(0x40)\n      tag_113\n      swap3\n      swap2\n      swap1\n      tag_114\n      jump\t// in\n    tag_113:\n      mload(0x40)\n      dup1\n      swap2\n      sub\n      swap1\n      log2\n        /* \"contracts/NovaClassTicket.sol\":3243:3252  passPrice */\n      sload(0x00)\n        /* \"contracts/NovaClassTicket.sol\":3231:3240  msg.value */\n      callvalue\n        /* \"contracts/NovaClassTicket.sol\":3231:3252  msg.value > passPrice */\n      gt\n        /* \"contracts/NovaClassTicket.sol\":3227:3394  if (msg.value > passPrice) {... */\n      iszero\n      tag_115\n      jumpi\n        /* \"contracts/NovaClassTicket.sol\":3269:3281  bool success */\n      0x00\n        /* \"contracts/NovaClassTicket.sol\":3287:3297  msg.sender */\n      caller\n        /* \"contracts/NovaClassTicket.sol\":3287:3302  msg.sender.call */\n      0xffffffffffffffffffffffffffffffffffffffff\n      and\n        /* \"contracts/NovaClassTicket.sol\":3322:3331  passPrice */\n      sload(0x00)\n        /* \"contracts/NovaClassTicket.sol\":3310:3319  msg.value */\n      callvalue\n        /* \"contracts/NovaClassTicket.sol\":3310:3331  msg.value - passPrice */\n      tag_116\n      swap2\n      swap1\n      tag_78\n      jump\t// in\n    tag_116:\n        /* \"contracts/NovaClassTicket.sol\":3287:3336  msg.sender.call{value: msg.value - passPrice}(\"\") */\n      mload(0x40)\n      tag_117\n      swap1\n      tag_92\n      jump\t// in\n    tag_117:\n      0x00\n      mload(0x40)\n      dup1\n      dup4\n      sub\n      dup2\n      dup6\n      dup8\n      gas\n      call\n      swap3\n      pop\n      pop\n      pop\n      returndatasize\n      dup1\n      0x00\n      dup2\n      eq\n      tag_120\n      jumpi\n      mload(0x40)\n      swap2\n      pop\n      and(add(returndatasize, 0x3f), not(0x1f))\n      dup3\n      add\n      0x40\n      mstore\n      returndatasize\n      dup3\n      mstore\n      returndatasize\n      0x00\n      0x20\n      dup5\n      add\n      returndatacopy\n      jump(tag_119)\n    tag_120:\n      0x60\n      swap2\n      pop\n    tag_119:\n      pop\n        /* \"contracts/NovaClassTicket.sol\":3268:3336  (bool success, ) = msg.sender.call{value: msg.value - passPrice}(\"\") */\n      pop\n      swap1\n      pop\n        /* \"contracts/NovaClassTicket.sol\":3358:3365  success */\n      dup1\n        /* \"contracts/NovaClassTicket.sol\":3350:3383  require(success, \"Refund failed\") */\n      tag_121\n      jumpi\n      mload(0x40)\n      0x08c379a000000000000000000000000000000000000000000000000000000000\n      dup2\n      mstore\n      0x04\n      add\n      tag_122\n      swap1\n      tag_123\n      jump\t// in\n    tag_122:\n      mload(0x40)\n      dup1\n      swap2\n      sub\n      swap1\n      revert\n    tag_121:\n        /* \"contracts/NovaClassTicket.sol\":3254:3394  {... */\n      pop\n        /* \"contracts/NovaClassTicket.sol\":3227:3394  if (msg.value > passPrice) {... */\n    tag_115:\n        /* \"contracts/NovaClassTicket.sol\":2624:3400  {... */\n      pop\n        /* \"contracts/NovaClassTicket.sol\":2588:3400  function buyPass() external payable {... */\n      jump\t// out\n        /* \"contracts/NovaClassTicket.sol\":494:521  uint256 public passDuration */\n    tag_73:\n      sload(0x01)\n      dup2\n      jump\t// out\n        /* \"#utility.yul\":88:205   */\n    tag_125:\n        /* \"#utility.yul\":197:198   */\n      0x00\n        /* \"#utility.yul\":194:195   */\n      0x00\n        /* \"#utility.yul\":187:199   */\n      revert\n        /* \"#utility.yul\":334:460   */\n    tag_127:\n        /* \"#utility.yul\":371:378   */\n      0x00\n        /* \"#utility.yul\":411:453   */\n      0xffffffffffffffffffffffffffffffffffffffff\n        /* \"#utility.yul\":404:409   */\n      dup3\n        /* \"#utility.yul\":400:454   */\n      and\n        /* \"#utility.yul\":389:454   */\n      swap1\n      pop\n        /* \"#utility.yul\":334:460   */\n      swap2\n      swap1\n      pop\n      jump\t// out\n        /* \"#utility.yul\":466:562   */\n    tag_128:\n        /* \"#utility.yul\":503:510   */\n      0x00\n        /* \"#utility.yul\":532:556   */\n      tag_152\n        /* \"#utility.yul\":550:555   */\n      dup3\n        /* \"#utility.yul\":532:556   */\n      tag_127\n      jump\t// in\n    tag_152:\n        /* \"#utility.yul\":521:556   */\n      swap1\n      pop\n        /* \"#utility.yul\":466:562   */\n      swap2\n      swap1\n      pop\n      jump\t// out\n        /* \"#utility.yul\":568:690   */\n    tag_129:\n        /* \"#utility.yul\":641:665   */\n      tag_154\n        /* \"#utility.yul\":659:664   */\n      dup2\n        /* \"#utility.yul\":641:665   */\n      tag_128\n      jump\t// in\n    tag_154:\n        /* \"#utility.yul\":634:639   */\n      dup2\n        /* \"#utility.yul\":631:666   */\n      eq\n        /* \"#utility.yul\":621:684   */\n      tag_155\n      jumpi\n        /* \"#utility.yul\":680:681   */\n      0x00\n        /* \"#utility.yul\":677:678   */\n      0x00\n        /* \"#utility.yul\":670:682   */\n      revert\n        /* \"#utility.yul\":621:684   */\n    tag_155:\n        /* \"#utility.yul\":568:690   */\n      pop\n      jump\t// out\n        /* \"#utility.yul\":696:835   */\n    tag_130:\n        /* \"#utility.yul\":742:747   */\n      0x00\n        /* \"#utility.yul\":780:786   */\n      dup2\n        /* \"#utility.yul\":767:787   */\n      calldataload\n        /* \"#utility.yul\":758:787   */\n      swap1\n      pop\n        /* \"#utility.yul\":796:829   */\n      tag_157\n        /* \"#utility.yul\":823:828   */\n      dup2\n        /* \"#utility.yul\":796:829   */\n      tag_129\n      jump\t// in\n    tag_157:\n        /* \"#utility.yul\":696:835   */\n      swap3\n      swap2\n      pop\n      pop\n      jump\t// out\n        /* \"#utility.yul\":841:1170   */\n    tag_20:\n        /* \"#utility.yul\":900:906   */\n      0x00\n        /* \"#utility.yul\":949:951   */\n      0x20\n        /* \"#utility.yul\":937:946   */\n      dup3\n        /* \"#utility.yul\":928:935   */\n      dup5\n        /* \"#utility.yul\":924:947   */\n      sub\n        /* \"#utility.yul\":920:952   */\n      slt\n        /* \"#utility.yul\":917:1036   */\n      iszero\n      tag_159\n      jumpi\n        /* \"#utility.yul\":955:1034   */\n      tag_160\n      tag_125\n      jump\t// in\n    tag_160:\n        /* \"#utility.yul\":917:1036   */\n    tag_159:\n        /* \"#utility.yul\":1075:1076   */\n      0x00\n        /* \"#utility.yul\":1100:1153   */\n      tag_161\n        /* \"#utility.yul\":1145:1152   */\n      dup5\n        /* \"#utility.yul\":1136:1142   */\n      dup3\n        /* \"#utility.yul\":1125:1134   */\n      dup6\n        /* \"#utility.yul\":1121:1143   */\n      add\n        /* \"#utility.yul\":1100:1153   */\n      tag_130\n      jump\t// in\n    tag_161:\n        /* \"#utility.yul\":1090:1153   */\n      swap2\n      pop\n        /* \"#utility.yul\":1046:1163   */\n      pop\n        /* \"#utility.yul\":841:1170   */\n      swap3\n      swap2\n      pop\n      pop\n      jump\t// out\n        /* \"#utility.yul\":1176:1253   */\n    tag_131:\n        /* \"#utility.yul\":1213:1220   */\n      0x00\n        /* \"#utility.yul\":1242:1247   */\n      dup2\n        /* \"#utility.yul\":1231:1247   */\n      swap1\n      pop\n        /* \"#utility.yul\":1176:1253   */\n      swap2\n      swap1\n      pop\n      jump\t// out\n        /* \"#utility.yul\":1259:1377   */\n    tag_132:\n        /* \"#utility.yul\":1346:1370   */\n      tag_164\n        /* \"#utility.yul\":1364:1369   */\n      dup2\n        /* \"#utility.yul\":1346:1370   */\n      tag_131\n      jump\t// in\n    tag_164:\n        /* \"#utility.yul\":1341:1344   */\n      dup3\n        /* \"#utility.yul\":1334:1371   */\n      mstore\n        /* \"#utility.yul\":1259:1377   */\n      pop\n      pop\n      jump\t// out\n        /* \"#utility.yul\":1383:1605   */\n    tag_23:\n        /* \"#utility.yul\":1476:1480   */\n      0x00\n        /* \"#utility.yul\":1514:1516   */\n      0x20\n        /* \"#utility.yul\":1503:1512   */\n      dup3\n        /* \"#utility.yul\":1499:1517   */\n      add\n        /* \"#utility.yul\":1491:1517   */\n      swap1\n      pop\n        /* \"#utility.yul\":1527:1598   */\n      tag_166\n        /* \"#utility.yul\":1595:1596   */\n      0x00\n        /* \"#utility.yul\":1584:1593   */\n      dup4\n        /* \"#utility.yul\":1580:1597   */\n      add\n        /* \"#utility.yul\":1571:1577   */\n      dup5\n        /* \"#utility.yul\":1527:1598   */\n      tag_132\n      jump\t// in\n    tag_166:\n        /* \"#utility.yul\":1383:1605   */\n      swap3\n      swap2\n      pop\n      pop\n      jump\t// out\n        /* \"#utility.yul\":1611:1733   */\n    tag_133:\n        /* \"#utility.yul\":1684:1708   */\n      tag_168\n        /* \"#utility.yul\":1702:1707   */\n      dup2\n        /* \"#utility.yul\":1684:1708   */\n      tag_131\n      jump\t// in\n    tag_168:\n        /* \"#utility.yul\":1677:1682   */\n      dup2\n        /* \"#utility.yul\":1674:1709   */\n      eq\n        /* \"#utility.yul\":1664:1727   */\n      tag_169\n      jumpi\n        /* \"#utility.yul\":1723:1724   */\n      0x00\n        /* \"#utility.yul\":1720:1721   */\n      0x00\n        /* \"#utility.yul\":1713:1725   */\n      revert\n        /* \"#utility.yul\":1664:1727   */\n    tag_169:\n        /* \"#utility.yul\":1611:1733   */\n      pop\n      jump\t// out\n        /* \"#utility.yul\":1739:1878   */\n    tag_134:\n        /* \"#utility.yul\":1785:1790   */\n      0x00\n        /* \"#utility.yul\":1823:1829   */\n      dup2\n        /* \"#utility.yul\":1810:1830   */\n      calldataload\n        /* \"#utility.yul\":1801:1830   */\n      swap1\n      pop\n        /* \"#utility.yul\":1839:1872   */\n      tag_171\n        /* \"#utility.yul\":1866:1871   */\n      dup2\n        /* \"#utility.yul\":1839:1872   */\n      tag_133\n      jump\t// in\n    tag_171:\n        /* \"#utility.yul\":1739:1878   */\n      swap3\n      swap2\n      pop\n      pop\n      jump\t// out\n        /* \"#utility.yul\":1884:2213   */\n    tag_31:\n        /* \"#utility.yul\":1943:1949   */\n      0x00\n        /* \"#utility.yul\":1992:1994   */\n      0x20\n        /* \"#utility.yul\":1980:1989   */\n      dup3\n        /* \"#utility.yul\":1971:1978   */\n      dup5\n        /* \"#utility.yul\":1967:1990   */\n      sub\n        /* \"#utility.yul\":1963:1995   */\n      slt\n        /* \"#utility.yul\":1960:2079   */\n      iszero\n      tag_173\n      jumpi\n        /* \"#utility.yul\":1998:2077   */\n      tag_174\n      tag_125\n      jump\t// in\n    tag_174:\n        /* \"#utility.yul\":1960:2079   */\n    tag_173:\n        /* \"#utility.yul\":2118:2119   */\n      0x00\n        /* \"#utility.yul\":2143:2196   */\n      tag_175\n        /* \"#utility.yul\":2188:2195   */\n      dup5\n        /* \"#utility.yul\":2179:2185   */\n      dup3\n        /* \"#utility.yul\":2168:2177   */\n      dup6\n        /* \"#utility.yul\":2164:2186   */\n      add\n        /* \"#utility.yul\":2143:2196   */\n      tag_134\n      jump\t// in\n    tag_175:\n        /* \"#utility.yul\":2133:2196   */\n      swap2\n      pop\n        /* \"#utility.yul\":2089:2206   */\n      pop\n        /* \"#utility.yul\":1884:2213   */\n      swap3\n      swap2\n      pop\n      pop\n      jump\t// out\n        /* \"#utility.yul\":2219:2309   */\n    tag_135:\n        /* \"#utility.yul\":2253:2260   */\n      0x00\n        /* \"#utility.yul\":2296:2301   */\n      dup2\n        /* \"#utility.yul\":2289:2302   */\n      iszero\n        /* \"#utility.yul\":2282:2303   */\n      iszero\n        /* \"#utility.yul\":2271:2303   */\n      swap1\n      pop\n        /* \"#utility.yul\":2219:2309   */\n      swap2\n      swap1\n      pop\n      jump\t// out\n        /* \"#utility.yul\":2315:2424   */\n    tag_136:\n        /* \"#utility.yul\":2396:2417   */\n      tag_178\n        /* \"#utility.yul\":2411:2416   */\n      dup2\n        /* \"#utility.yul\":2396:2417   */\n      tag_135\n      jump\t// in\n    tag_178:\n        /* \"#utility.yul\":2391:2394   */\n      dup3\n        /* \"#utility.yul\":2384:2418   */\n      mstore\n        /* \"#utility.yul\":2315:2424   */\n      pop\n      pop\n      jump\t// out\n        /* \"#utility.yul\":2430:2640   */\n    tag_42:\n        /* \"#utility.yul\":2517:2521   */\n      0x00\n        /* \"#utility.yul\":2555:2557   */\n      0x20\n        /* \"#utility.yul\":2544:2553   */\n      dup3\n        /* \"#utility.yul\":2540:2558   */\n      add\n        /* \"#utility.yul\":2532:2558   */\n      swap1\n      pop\n        /* \"#utility.yul\":2568:2633   */\n      tag_180\n        /* \"#utility.yul\":2630:2631   */\n      0x00\n        /* \"#utility.yul\":2619:2628   */\n      dup4\n        /* \"#utility.yul\":2615:2632   */\n      add\n        /* \"#utility.yul\":2606:2612   */\n      dup5\n        /* \"#utility.yul\":2568:2633   */\n      tag_136\n      jump\t// in\n    tag_180:\n        /* \"#utility.yul\":2430:2640   */\n      swap3\n      swap2\n      pop\n      pop\n      jump\t// out\n        /* \"#utility.yul\":2646:2764   */\n    tag_137:\n        /* \"#utility.yul\":2733:2757   */\n      tag_182\n        /* \"#utility.yul\":2751:2756   */\n      dup2\n        /* \"#utility.yul\":2733:2757   */\n      tag_128\n      jump\t// in\n    tag_182:\n        /* \"#utility.yul\":2728:2731   */\n      dup3\n        /* \"#utility.yul\":2721:2758   */\n      mstore\n        /* \"#utility.yul\":2646:2764   */\n      pop\n      pop\n      jump\t// out\n        /* \"#utility.yul\":2770:2992   */\n    tag_54:\n        /* \"#utility.yul\":2863:2867   */\n      0x00\n        /* \"#utility.yul\":2901:2903   */\n      0x20\n        /* \"#utility.yul\":2890:2899   */\n      dup3\n        /* \"#utility.yul\":2886:2904   */\n      add\n        /* \"#utility.yul\":2878:2904   */\n      swap1\n      pop\n        /* \"#utility.yul\":2914:2985   */\n      tag_184\n        /* \"#utility.yul\":2982:2983   */\n      0x00\n        /* \"#utility.yul\":2971:2980   */\n      dup4\n        /* \"#utility.yul\":2967:2984   */\n      add\n        /* \"#utility.yul\":2958:2964   */\n      dup5\n        /* \"#utility.yul\":2914:2985   */\n      tag_137\n      jump\t// in\n    tag_184:\n        /* \"#utility.yul\":2770:2992   */\n      swap3\n      swap2\n      pop\n      pop\n      jump\t// out\n        /* \"#utility.yul\":2998:3178   */\n    tag_138:\n        /* \"#utility.yul\":3046:3123   */\n      0x4e487b7100000000000000000000000000000000000000000000000000000000\n        /* \"#utility.yul\":3043:3044   */\n      0x00\n        /* \"#utility.yul\":3036:3124   */\n      mstore\n        /* \"#utility.yul\":3143:3147   */\n      0x11\n        /* \"#utility.yul\":3140:3141   */\n      0x04\n        /* \"#utility.yul\":3133:3148   */\n      mstore\n        /* \"#utility.yul\":3167:3171   */\n      0x24\n        /* \"#utility.yul\":3164:3165   */\n      0x00\n        /* \"#utility.yul\":3157:3172   */\n      revert\n        /* \"#utility.yul\":3184:3378   */\n    tag_78:\n        /* \"#utility.yul\":3224:3228   */\n      0x00\n        /* \"#utility.yul\":3244:3264   */\n      tag_187\n        /* \"#utility.yul\":3262:3263   */\n      dup3\n        /* \"#utility.yul\":3244:3264   */\n      tag_131\n      jump\t// in\n    tag_187:\n        /* \"#utility.yul\":3239:3264   */\n      swap2\n      pop\n        /* \"#utility.yul\":3278:3298   */\n      tag_188\n        /* \"#utility.yul\":3296:3297   */\n      dup4\n        /* \"#utility.yul\":3278:3298   */\n      tag_131\n      jump\t// in\n    tag_188:\n        /* \"#utility.yul\":3273:3298   */\n      swap3\n      pop\n        /* \"#utility.yul\":3322:3323   */\n      dup3\n        /* \"#utility.yul\":3319:3320   */\n      dup3\n        /* \"#utility.yul\":3315:3324   */\n      sub\n        /* \"#utility.yul\":3307:3324   */\n      swap1\n      pop\n        /* \"#utility.yul\":3346:3347   */\n      dup2\n        /* \"#utility.yul\":3340:3344   */\n      dup2\n        /* \"#utility.yul\":3337:3348   */\n      gt\n        /* \"#utility.yul\":3334:3371   */\n      iszero\n      tag_189\n      jumpi\n        /* \"#utility.yul\":3351:3369   */\n      tag_190\n      tag_138\n      jump\t// in\n    tag_190:\n        /* \"#utility.yul\":3334:3371   */\n    tag_189:\n        /* \"#utility.yul\":3184:3378   */\n      swap3\n      swap2\n      pop\n      pop\n      jump\t// out\n        /* \"#utility.yul\":3384:3794   */\n    tag_84:\n        /* \"#utility.yul\":3424:3431   */\n      0x00\n        /* \"#utility.yul\":3447:3467   */\n      tag_192\n        /* \"#utility.yul\":3465:3466   */\n      dup3\n        /* \"#utility.yul\":3447:3467   */\n      tag_131\n      jump\t// in\n    tag_192:\n        /* \"#utility.yul\":3442:3467   */\n      swap2\n      pop\n        /* \"#utility.yul\":3481:3501   */\n      tag_193\n        /* \"#utility.yul\":3499:3500   */\n      dup4\n        /* \"#utility.yul\":3481:3501   */\n      tag_131\n      jump\t// in\n    tag_193:\n        /* \"#utility.yul\":3476:3501   */\n      swap3\n      pop\n        /* \"#utility.yul\":3536:3537   */\n      dup3\n        /* \"#utility.yul\":3533:3534   */\n      dup3\n        /* \"#utility.yul\":3529:3538   */\n      mul\n        /* \"#utility.yul\":3558:3588   */\n      tag_194\n        /* \"#utility.yul\":3576:3587   */\n      dup2\n        /* \"#utility.yul\":3558:3588   */\n      tag_131\n      jump\t// in\n    tag_194:\n        /* \"#utility.yul\":3547:3588   */\n      swap2\n      pop\n        /* \"#utility.yul\":3737:3738   */\n      dup3\n        /* \"#utility.yul\":3728:3735   */\n      dup3\n        /* \"#utility.yul\":3724:3739   */\n      div\n        /* \"#utility.yul\":3721:3722   */\n      dup5\n        /* \"#utility.yul\":3718:3740   */\n      eq\n        /* \"#utility.yul\":3698:3699   */\n      dup4\n        /* \"#utility.yul\":3691:3700   */\n      iszero\n        /* \"#utility.yul\":3671:3754   */\n      or\n        /* \"#utility.yul\":3648:3787   */\n      tag_195\n      jumpi\n        /* \"#utility.yul\":3767:3785   */\n      tag_196\n      tag_138\n      jump\t// in\n    tag_196:\n        /* \"#utility.yul\":3648:3787   */\n    tag_195:\n        /* \"#utility.yul\":3432:3794   */\n      pop\n        /* \"#utility.yul\":3384:3794   */\n      swap3\n      swap2\n      pop\n      pop\n      jump\t// out\n        /* \"#utility.yul\":3800:3947   */\n    tag_139:\n        /* \"#utility.yul\":3901:3912   */\n      0x00\n        /* \"#utility.yul\":3938:3941   */\n      dup2\n        /* \"#utility.yul\":3923:3941   */\n      swap1\n      pop\n        /* \"#utility.yul\":3800:3947   */\n      swap3\n      swap2\n      pop\n      pop\n      jump\t// out\n        /* \"#utility.yul\":3953:4067   */\n    tag_140:\n      pop\n      jump\t// out\n        /* \"#utility.yul\":4073:4471   */\n    tag_141:\n        /* \"#utility.yul\":4232:4235   */\n      0x00\n        /* \"#utility.yul\":4253:4336   */\n      tag_200\n        /* \"#utility.yul\":4334:4335   */\n      0x00\n        /* \"#utility.yul\":4329:4332   */\n      dup4\n        /* \"#utility.yul\":4253:4336   */\n      tag_139\n      jump\t// in\n    tag_200:\n        /* \"#utility.yul\":4246:4336   */\n      swap2\n      pop\n        /* \"#utility.yul\":4345:4438   */\n      tag_201\n        /* \"#utility.yul\":4434:4437   */\n      dup3\n        /* \"#utility.yul\":4345:4438   */\n      tag_140\n      jump\t// in\n    tag_201:\n        /* \"#utility.yul\":4463:4464   */\n      0x00\n        /* \"#utility.yul\":4458:4461   */\n      dup3\n        /* \"#utility.yul\":4454:4465   */\n      add\n        /* \"#utility.yul\":4447:4465   */\n      swap1\n      pop\n        /* \"#utility.yul\":4073:4471   */\n      swap2\n      swap1\n      pop\n      jump\t// out\n        /* \"#utility.yul\":4477:4856   */\n    tag_92:\n        /* \"#utility.yul\":4661:4664   */\n      0x00\n        /* \"#utility.yul\":4683:4830   */\n      tag_203\n        /* \"#utility.yul\":4826:4829   */\n      dup3\n        /* \"#utility.yul\":4683:4830   */\n      tag_141\n      jump\t// in\n    tag_203:\n        /* \"#utility.yul\":4676:4830   */\n      swap2\n      pop\n        /* \"#utility.yul\":4847:4850   */\n      dup2\n        /* \"#utility.yul\":4840:4850   */\n      swap1\n      pop\n        /* \"#utility.yul\":4477:4856   */\n      swap2\n      swap1\n      pop\n      jump\t// out\n        /* \"#utility.yul\":4862:5042   */\n    tag_142:\n        /* \"#utility.yul\":4910:4987   */\n      0x4e487b7100000000000000000000000000000000000000000000000000000000\n        /* \"#utility.yul\":4907:4908   */\n      0x00\n        /* \"#utility.yul\":4900:4988   */\n      mstore\n        /* \"#utility.yul\":5007:5011   */\n      0x12\n        /* \"#utility.yul\":5004:5005   */\n      0x04\n        /* \"#utility.yul\":4997:5012   */\n      mstore\n        /* \"#utility.yul\":5031:5035   */\n      0x24\n        /* \"#utility.yul\":5028:5029   */\n      0x00\n        /* \"#utility.yul\":5021:5036   */\n      revert\n        /* \"#utility.yul\":5048:5233   */\n    tag_105:\n        /* \"#utility.yul\":5088:5089   */\n      0x00\n        /* \"#utility.yul\":5105:5125   */\n      tag_206\n        /* \"#utility.yul\":5123:5124   */\n      dup3\n        /* \"#utility.yul\":5105:5125   */\n      tag_131\n      jump\t// in\n    tag_206:\n        /* \"#utility.yul\":5100:5125   */\n      swap2\n      pop\n        /* \"#utility.yul\":5139:5159   */\n      tag_207\n        /* \"#utility.yul\":5157:5158   */\n      dup4\n        /* \"#utility.yul\":5139:5159   */\n      tag_131\n      jump\t// in\n    tag_207:\n        /* \"#utility.yul\":5134:5159   */\n      swap3\n      pop\n        /* \"#utility.yul\":5178:5179   */\n      dup3\n        /* \"#utility.yul\":5168:5203   */\n      tag_208\n      jumpi\n        /* \"#utility.yul\":5183:5201   */\n      tag_209\n      tag_142\n      jump\t// in\n    tag_209:\n        /* \"#utility.yul\":5168:5203   */\n    tag_208:\n        /* \"#utility.yul\":5225:5226   */\n      dup3\n        /* \"#utility.yul\":5222:5223   */\n      dup3\n        /* \"#utility.yul\":5218:5227   */\n      div\n        /* \"#utility.yul\":5213:5227   */\n      swap1\n      pop\n        /* \"#utility.yul\":5048:5233   */\n      swap3\n      swap2\n      pop\n      pop\n      jump\t// out\n        /* \"#utility.yul\":5239:5430   */\n    tag_110:\n        /* \"#utility.yul\":5279:5282   */\n      0x00\n        /* \"#utility.yul\":5298:5318   */\n      tag_211\n        /* \"#utility.yul\":5316:5317   */\n      dup3\n        /* \"#utility.yul\":5298:5318   */\n      tag_131\n      jump\t// in\n    tag_211:\n        /* \"#utility.yul\":5293:5318   */\n      swap2\n      pop\n        /* \"#utility.yul\":5332:5352   */\n      tag_212\n        /* \"#utility.yul\":5350:5351   */\n      dup4\n        /* \"#utility.yul\":5332:5352   */\n      tag_131\n      jump\t// in\n    tag_212:\n        /* \"#utility.yul\":5327:5352   */\n      swap3\n      pop\n        /* \"#utility.yul\":5375:5376   */\n      dup3\n        /* \"#utility.yul\":5372:5373   */\n      dup3\n        /* \"#utility.yul\":5368:5377   */\n      add\n        /* \"#utility.yul\":5361:5377   */\n      swap1\n      pop\n        /* \"#utility.yul\":5396:5399   */\n      dup1\n        /* \"#utility.yul\":5393:5394   */\n      dup3\n        /* \"#utility.yul\":5390:5400   */\n      gt\n        /* \"#utility.yul\":5387:5423   */\n      iszero\n      tag_213\n      jumpi\n        /* \"#utility.yul\":5403:5421   */\n      tag_214\n      tag_138\n      jump\t// in\n    tag_214:\n        /* \"#utility.yul\":5387:5423   */\n    tag_213:\n        /* \"#utility.yul\":5239:5430   */\n      swap3\n      swap2\n      pop\n      pop\n      jump\t// out\n        /* \"#utility.yul\":5436:5768   */\n    tag_114:\n        /* \"#utility.yul\":5557:5561   */\n      0x00\n        /* \"#utility.yul\":5595:5597   */\n      0x40\n        /* \"#utility.yul\":5584:5593   */\n      dup3\n        /* \"#utility.yul\":5580:5598   */\n      add\n        /* \"#utility.yul\":5572:5598   */\n      swap1\n      pop\n        /* \"#utility.yul\":5608:5679   */\n      tag_216\n        /* \"#utility.yul\":5676:5677   */\n      0x00\n        /* \"#utility.yul\":5665:5674   */\n      dup4\n        /* \"#utility.yul\":5661:5678   */\n      add\n        /* \"#utility.yul\":5652:5658   */\n      dup6\n        /* \"#utility.yul\":5608:5679   */\n      tag_132\n      jump\t// in\n    tag_216:\n        /* \"#utility.yul\":5689:5761   */\n      tag_217\n        /* \"#utility.yul\":5757:5759   */\n      0x20\n        /* \"#utility.yul\":5746:5755   */\n      dup4\n        /* \"#utility.yul\":5742:5760   */\n      add\n        /* \"#utility.yul\":5733:5739   */\n      dup5\n        /* \"#utility.yul\":5689:5761   */\n      tag_132\n      jump\t// in\n    tag_217:\n        /* \"#utility.yul\":5436:5768   */\n      swap4\n      swap3\n      pop\n      pop\n      pop\n      jump\t// out\n        /* \"#utility.yul\":5774:5943   */\n    tag_143:\n        /* \"#utility.yul\":5858:5869   */\n      0x00\n        /* \"#utility.yul\":5892:5898   */\n      dup3\n        /* \"#utility.yul\":5887:5890   */\n      dup3\n        /* \"#utility.yul\":5880:5899   */\n      mstore\n        /* \"#utility.yul\":5932:5936   */\n      0x20\n        /* \"#utility.yul\":5927:5930   */\n      dup3\n        /* \"#utility.yul\":5923:5937   */\n      add\n        /* \"#utility.yul\":5908:5937   */\n      swap1\n      pop\n        /* \"#utility.yul\":5774:5943   */\n      swap3\n      swap2\n      pop\n      pop\n      jump\t// out\n        /* \"#utility.yul\":5949:6112   */\n    tag_144:\n        /* \"#utility.yul\":6089:6104   */\n      0x526566756e64206661696c656400000000000000000000000000000000000000\n        /* \"#utility.yul\":6085:6086   */\n      0x00\n        /* \"#utility.yul\":6077:6083   */\n      dup3\n        /* \"#utility.yul\":6073:6087   */\n      add\n        /* \"#utility.yul\":6066:6105   */\n      mstore\n        /* \"#utility.yul\":5949:6112   */\n      pop\n      jump\t// out\n        /* \"#utility.yul\":6118:6484   */\n    tag_145:\n        /* \"#utility.yul\":6260:6263   */\n      0x00\n        /* \"#utility.yul\":6281:6348   */\n      tag_221\n        /* \"#utility.yul\":6345:6347   */\n      0x0d\n        /* \"#utility.yul\":6340:6343   */\n      dup4\n        /* \"#utility.yul\":6281:6348   */\n      tag_143\n      jump\t// in\n    tag_221:\n        /* \"#utility.yul\":6274:6348   */\n      swap2\n      pop\n        /* \"#utility.yul\":6357:6450   */\n      tag_222\n        /* \"#utility.yul\":6446:6449   */\n      dup3\n        /* \"#utility.yul\":6357:6450   */\n      tag_144\n      jump\t// in\n    tag_222:\n        /* \"#utility.yul\":6475:6477   */\n      0x20\n        /* \"#utility.yul\":6470:6473   */\n      dup3\n        /* \"#utility.yul\":6466:6478   */\n      add\n        /* \"#utility.yul\":6459:6478   */\n      swap1\n      pop\n        /* \"#utility.yul\":6118:6484   */\n      swap2\n      swap1\n      pop\n      jump\t// out\n        /* \"#utility.yul\":6490:6909   */\n    tag_123:\n        /* \"#utility.yul\":6656:6660   */\n      0x00\n        /* \"#utility.yul\":6694:6696   */\n      0x20\n        /* \"#utility.yul\":6683:6692   */\n      dup3\n        /* \"#utility.yul\":6679:6697   */\n      add\n        /* \"#utility.yul\":6671:6697   */\n      swap1\n      pop\n        /* \"#utility.yul\":6743:6752   */\n      dup2\n        /* \"#utility.yul\":6737:6741   */\n      dup2\n        /* \"#utility.yul\":6733:6753   */\n      sub\n        /* \"#utility.yul\":6729:6730   */\n      0x00\n        /* \"#utility.yul\":6718:6727   */\n      dup4\n        /* \"#utility.yul\":6714:6731   */\n      add\n        /* \"#utility.yul\":6707:6754   */\n      mstore\n        /* \"#utility.yul\":6771:6902   */\n      tag_224\n        /* \"#utility.yul\":6897:6901   */\n      dup2\n        /* \"#utility.yul\":6771:6902   */\n      tag_145\n      jump\t// in\n    tag_224:\n        /* \"#utility.yul\":6763:6902   */\n      swap1\n      pop\n        /* \"#utility.yul\":6490:6909   */\n      swap2\n      swap1\n      pop\n      jump\t// out\n\n    auxdata: 0xa26469706673582212206535d9f5dd272b7a7de8db6fe548baad5610e609eb4b4ac9141795f27717dec964736f6c634300081e0033\n}\n",
				"bytecode": {
					"linkReferences": {},
					"object": "608060405234801561000f575f5ffd5b50604051610f1a380380610f1a833981810160405281019061003191906100ca565b3360025f6101000a81548173ffffffffffffffffffffffffffffffffffffffff021916908373ffffffffffffffffffffffffffffffffffffffff160217905550815f8190555062015180816100869190610135565b6001819055505050610176565b5f5ffd5b5f819050919050565b6100a981610097565b81146100b3575f5ffd5b50565b5f815190506100c4816100a0565b92915050565b5f5f604083850312156100e0576100df610093565b5b5f6100ed858286016100b6565b92505060206100fe858286016100b6565b9150509250929050565b7f4e487b71000000000000000000000000000000000000000000000000000000005f52601160045260245ffd5b5f61013f82610097565b915061014a83610097565b925082820261015881610097565b9150828204841483151761016f5761016e610108565b5b5092915050565b610d97806101835f395ff3fe6080604052600436106100c1575f3560e01c80638d6cc56d1161007e578063ca3286f511610058578063ca3286f51461025d578063d0eff89114610287578063f5f7836c146102c3578063f87de02d146102cd576100c1565b80638d6cc56d146101cf5780638da5cb5b146101f757806395a078e814610221576100c1565b80630b0ad26a146100c557806312065fe0146101015780631b50ad091461012b5780632648470514610153578063347594ed1461018f5780633ccfd60b146101b9575b5f5ffd5b3480156100d0575f5ffd5b506100eb60048036038101906100e69190610a44565b6102f7565b6040516100f89190610a87565b60405180910390f35b34801561010c575f5ffd5b50610115610395565b6040516101229190610a87565b60405180910390f35b348015610136575f5ffd5b50610151600480360381019061014c9190610aca565b61039c565b005b34801561015e575f5ffd5b5061017960048036038101906101749190610a44565b610473565b6040516101869190610a87565b60405180910390f35b34801561019a575f5ffd5b506101a3610488565b6040516101b09190610b0f565b60405180910390f35b3480156101c4575f5ffd5b506101cd610497565b005b3480156101da575f5ffd5b506101f560048036038101906101f09190610aca565b610654565b005b348015610202575f5ffd5b5061020b61071a565b6040516102189190610b37565b60405180910390f35b34801561022c575f5ffd5b5061024760048036038101906102429190610a44565b61073f565b6040516102549190610b0f565b60405180910390f35b348015610268575f5ffd5b50610271610787565b60405161027e9190610a87565b60405180910390f35b348015610292575f5ffd5b506102ad60048036038101906102a89190610aca565b61078c565b6040516102ba9190610a87565b60405180910390f35b6102cb6107a8565b005b3480156102d8575f5ffd5b506102e16109e0565b6040516102ee9190610a87565b60405180910390f35b5f4260035f8473ffffffffffffffffffffffffffffffffffffffff1673ffffffffffffffffffffffffffffffffffffffff1681526020019081526020015f205411610344575f9050610390565b4260035f8473ffffffffffffffffffffffffffffffffffffffff1673ffffffffffffffffffffffffffffffffffffffff1681526020019081526020015f205461038d9190610b7d565b90505b919050565b5f47905090565b60025f9054906101000a900473ffffffffffffffffffffffffffffffffffffffff1673ffffffffffffffffffffffffffffffffffffffff163373ffffffffffffffffffffffffffffffffffffffff1614610422576040517f5fc483c500000000000000000000000000000000000000000000000000000000815260040160405180910390fd5b62015180816104319190610bb0565b6001819055507f91abcc2d6823e3a3f11d31b208dd3065d2c6a791f1c7c9fe96a42ce12897eac56001546040516104689190610a87565b60405180910390a150565b6003602052805f5260405f205f915090505481565b5f6104923361073f565b905090565b60025f9054906101000a900473ffffffffffffffffffffffffffffffffffffffff1673ffffffffffffffffffffffffffffffffffffffff163373ffffffffffffffffffffffffffffffffffffffff161461051d576040517f5fc483c500000000000000000000000000000000000000000000000000000000815260040160405180910390fd5b5f4790505f60025f9054906101000a900473ffffffffffffffffffffffffffffffffffffffff1673ffffffffffffffffffffffffffffffffffffffff168260405161056790610c1e565b5f6040518083038185875af1925050503d805f81146105a1576040519150601f19603f3d011682016040523d82523d5f602084013e6105a6565b606091505b50509050806105e1576040517f27fcd9d100000000000000000000000000000000000000000000000000000000815260040160405180910390fd5b60025f9054906101000a900473ffffffffffffffffffffffffffffffffffffffff1673ffffffffffffffffffffffffffffffffffffffff167feaff4b37086828766ad3268786972c0cd24259d4c87a80f9d3963a3c3d999b0d836040516106489190610a87565b60405180910390a25050565b60025f9054906101000a900473ffffffffffffffffffffffffffffffffffffffff1673ffffffffffffffffffffffffffffffffffffffff163373ffffffffffffffffffffffffffffffffffffffff16146106da576040517f5fc483c500000000000000000000000000000000000000000000000000000000815260040160405180910390fd5b805f819055507f66cbca4f3c64fecf1dcb9ce094abcf7f68c3450a1d4e3a8e917dd621edb4ebe08160405161070f9190610a87565b60405180910390a150565b60025f9054906101000a900473ffffffffffffffffffffffffffffffffffffffff1681565b5f4260035f8473ffffffffffffffffffffffffffffffffffffffff1673ffffffffffffffffffffffffffffffffffffffff1681526020019081526020015f2054119050919050565b5f5481565b5f670de0b6b3a7640000826107a19190610c5f565b9050919050565b5f543410156107e3576040517fcd1c886700000000000000000000000000000000000000000000000000000000815260040160405180910390fd5b5f4260035f3373ffffffffffffffffffffffffffffffffffffffff1673ffffffffffffffffffffffffffffffffffffffff1681526020019081526020015f2054111561087b5760015460035f3373ffffffffffffffffffffffffffffffffffffffff1673ffffffffffffffffffffffffffffffffffffffff1681526020019081526020015f20546108749190610c8f565b905061088c565b600154426108899190610c8f565b90505b8060035f3373ffffffffffffffffffffffffffffffffffffffff1673ffffffffffffffffffffffffffffffffffffffff1681526020019081526020015f20819055503373ffffffffffffffffffffffffffffffffffffffff167f2f60a1b621accecc3d569c39cabeb0d50d01ebd273e052479f9f539c6abeaa738234604051610916929190610cc2565b60405180910390a25f543411156109dd575f3373ffffffffffffffffffffffffffffffffffffffff165f543461094c9190610b7d565b60405161095890610c1e565b5f6040518083038185875af1925050503d805f8114610992576040519150601f19603f3d011682016040523d82523d5f602084013e610997565b606091505b50509050806109db576040517f08c379a00000000000000000000000000000000000000000000000000000000081526004016109d290610d43565b60405180910390fd5b505b50565b60015481565b5f5ffd5b5f73ffffffffffffffffffffffffffffffffffffffff82169050919050565b5f610a13826109ea565b9050919050565b610a2381610a09565b8114610a2d575f5ffd5b50565b5f81359050610a3e81610a1a565b92915050565b5f60208284031215610a5957610a586109e6565b5b5f610a6684828501610a30565b91505092915050565b5f819050919050565b610a8181610a6f565b82525050565b5f602082019050610a9a5f830184610a78565b92915050565b610aa981610a6f565b8114610ab3575f5ffd5b50565b5f81359050610ac481610aa0565b92915050565b5f60208284031215610adf57610ade6109e6565b5b5f610aec84828501610ab6565b91505092915050565b5f8115159050919050565b610b0981610af5565b82525050565b5f602082019050610b225f830184610b00565b92915050565b610b3181610a09565b82525050565b5f602082019050610b4a5f830184610b28565b92915050565b7f4e487b71000000000000000000000000000000000000000000000000000000005f52601160045260245ffd5b5f610b8782610a6f565b9150610b9283610a6f565b9250828203905081811115610baa57610ba9610b50565b5b92915050565b5f610bba82610a6f565b9150610bc583610a6f565b9250828202610bd381610a6f565b91508282048414831517610bea57610be9610b50565b5b5092915050565b5f81905092915050565b50565b5f610c095f83610bf1565b9150610c1482610bfb565b5f82019050919050565b5f610c2882610bfe565b9150819050919050565b7f4e487b71000000000000000000000000000000000000000000000000000000005f52601260045260245ffd5b5f610c6982610a6f565b9150610c7483610a6f565b925082610c8457610c83610c32565b5b828204905092915050565b5f610c9982610a6f565b9150610ca483610a6f565b9250828201905080821115610cbc57610cbb610b50565b5b92915050565b5f604082019050610cd55f830185610a78565b610ce26020830184610a78565b9392505050565b5f82825260208201905092915050565b7f526566756e64206661696c6564000000000000000000000000000000000000005f82015250565b5f610d2d600d83610ce9565b9150610d3882610cf9565b602082019050919050565b5f6020820190508181035f830152610d5a81610d21565b905091905056fea26469706673582212206535d9f5dd272b7a7de8db6fe548baad5610e609eb4b4ac9141795f27717dec964736f6c634300081e0033",
					"opcodes": "PUSH1 0x80 PUSH1 0x40 MSTORE CALLVALUE DUP1 ISZERO PUSH2 0xF JUMPI PUSH0 PUSH0 REVERT JUMPDEST POP PUSH1 0x40 MLOAD PUSH2 0xF1A CODESIZE SUB DUP1 PUSH2 0xF1A DUP4 CODECOPY DUP2 DUP2 ADD PUSH1 0x40 MSTORE DUP2 ADD SWAP1 PUSH2 0x31 SWAP2 SWAP1 PUSH2 0xCA JUMP JUMPDEST CALLER PUSH1 0x2 PUSH0 PUSH2 0x100 EXP DUP2 SLOAD DUP2 PUSH20 0xFFFFFFFFFFFFFFFFFFFFFFFFFFFFFFFFFFFFFFFF MUL NOT AND SWAP1 DUP4 PUSH20 0xFFFFFFFFFFFFFFFFFFFFFFFFFFFFFFFFFFFFFFFF AND MUL OR SWAP1 SSTORE POP DUP2 PUSH0 DUP2 SWAP1 SSTORE POP PUSH3 0x15180 DUP2 PUSH2 0x86 SWAP2 SWAP1 PUSH2 0x135 JUMP JUMPDEST PUSH1 0x1 DUP2 SWAP1 SSTORE POP POP POP PUSH2 0x176 JUMP JUMPDEST PUSH0 PUSH0 REVERT JUMPDEST PUSH0 DUP2 SWAP1 POP SWAP2 SWAP1 POP JUMP JUMPDEST PUSH2 0xA9 DUP2 PUSH2 0x97 JUMP JUMPDEST DUP2 EQ PUSH2 0xB3 JUMPI PUSH0 PUSH0 REVERT JUMPDEST POP JUMP JUMPDEST PUSH0 DUP2 MLOAD SWAP1 POP PUSH2 0xC4 DUP2 PUSH2 0xA0 JUMP JUMPDEST SWAP3 SWAP2 POP POP JUMP JUMPDEST PUSH0 PUSH0 PUSH1 0x40 DUP4 DUP6 SUB SLT ISZERO PUSH2 0xE0 JUMPI PUSH2 0xDF PUSH2 0x93 JUMP JUMPDEST JUMPDEST PUSH0 PUSH2 0xED DUP6 DUP3 DUP7 ADD PUSH2 0xB6 JUMP JUMPDEST SWAP3 POP POP PUSH1 0x20 PUSH2 0xFE DUP6 DUP3 DUP7 ADD PUSH2 0xB6 JUMP JUMPDEST SWAP2 POP POP SWAP3 POP SWAP3 SWAP1 POP JUMP JUMPDEST PUSH32 0x4E487B7100000000000000000000000000000000000000000000000000000000 PUSH0 MSTORE PUSH1 0x11 PUSH1 0x4 MSTORE PUSH1 0x24 PUSH0 REVERT JUMPDEST PUSH0 PUSH2 0x13F DUP3 PUSH2 0x97 JUMP JUMPDEST SWAP2 POP PUSH2 0x14A DUP4 PUSH2 0x97 JUMP JUMPDEST SWAP3 POP DUP3 DUP3 MUL PUSH2 0x158 DUP2 PUSH2 0x97 JUMP JUMPDEST SWAP2 POP DUP3 DUP3 DIV DUP5 EQ DUP4 ISZERO OR PUSH2 0x16F JUMPI PUSH2 0x16E PUSH2 0x108 JUMP JUMPDEST JUMPDEST POP SWAP3 SWAP2 POP POP JUMP JUMPDEST PUSH2 0xD97 DUP1 PUSH2 0x183 PUSH0 CODECOPY PUSH0 RETURN INVALID PUSH1 0x80 PUSH1 0x40 MSTORE PUSH1 0x4 CALLDATASIZE LT PUSH2 0xC1 JUMPI PUSH0 CALLDATALOAD PUSH1 0xE0 SHR DUP1 PUSH4 0x8D6CC56D GT PUSH2 0x7E JUMPI DUP1 PUSH4 0xCA3286F5 GT PUSH2 0x58 JUMPI DUP1 PUSH4 0xCA3286F5 EQ PUSH2 0x25D JUMPI DUP1 PUSH4 0xD0EFF891 EQ PUSH2 0x287 JUMPI DUP1 PUSH4 0xF5F7836C EQ PUSH2 0x2C3 JUMPI DUP1 PUSH4 0xF87DE02D EQ PUSH2 0x2CD JUMPI PUSH2 0xC1 JUMP JUMPDEST DUP1 PUSH4 0x8D6CC56D EQ PUSH2 0x1CF JUMPI DUP1 PUSH4 0x8DA5CB5B EQ PUSH2 0x1F7 JUMPI DUP1 PUSH4 0x95A078E8 EQ PUSH2 0x221 JUMPI PUSH2 0xC1 JUMP JUMPDEST DUP1 PUSH4 0xB0AD26A EQ PUSH2 0xC5 JUMPI DUP1 PUSH4 0x12065FE0 EQ PUSH2 0x101 JUMPI DUP1 PUSH4 0x1B50AD09 EQ PUSH2 0x12B JUMPI DUP1 PUSH4 0x26484705 EQ PUSH2 0x153 JUMPI DUP1 PUSH4 0x347594ED EQ PUSH2 0x18F JUMPI DUP1 PUSH4 0x3CCFD60B EQ PUSH2 0x1B9 JUMPI JUMPDEST PUSH0 PUSH0 REVERT JUMPDEST CALLVALUE DUP1 ISZERO PUSH2 0xD0 JUMPI PUSH0 PUSH0 REVERT JUMPDEST POP PUSH2 0xEB PUSH1 0x4 DUP1 CALLDATASIZE SUB DUP2 ADD SWAP1 PUSH2 0xE6 SWAP2 SWAP1 PUSH2 0xA44 JUMP JUMPDEST PUSH2 0x2F7 JUMP JUMPDEST PUSH1 0x40 MLOAD PUSH2 0xF8 SWAP2 SWAP1 PUSH2 0xA87 JUMP JUMPDEST PUSH1 0x40 MLOAD DUP1 SWAP2 SUB SWAP1 RETURN JUMPDEST CALLVALUE DUP1 ISZERO PUSH2 0x10C JUMPI PUSH0 PUSH0 REVERT JUMPDEST POP PUSH2 0x115 PUSH2 0x395 JUMP JUMPDEST PUSH1 0x40 MLOAD PUSH2 0x122 SWAP2 SWAP1 PUSH2 0xA87 JUMP JUMPDEST PUSH1 0x40 MLOAD DUP1 SWAP2 SUB SWAP1 RETURN JUMPDEST CALLVALUE DUP1 ISZERO PUSH2 0x136 JUMPI PUSH0 PUSH0 REVERT JUMPDEST POP PUSH2 0x151 PUSH1 0x4 DUP1 CALLDATASIZE SUB DUP2 ADD SWAP1 PUSH2 0x14C SWAP2 SWAP1 PUSH2 0xACA JUMP JUMPDEST PUSH2 0x39C JUMP JUMPDEST STOP JUMPDEST CALLVALUE DUP1 ISZERO PUSH2 0x15E JUMPI PUSH0 PUSH0 REVERT JUMPDEST POP PUSH2 0x179 PUSH1 0x4 DUP1 CALLDATASIZE SUB DUP2 ADD SWAP1 PUSH2 0x174 SWAP2 SWAP1 PUSH2 0xA44 JUMP JUMPDEST PUSH2 0x473 JUMP JUMPDEST PUSH1 0x40 MLOAD PUSH2 0x186 SWAP2 SWAP1 PUSH2 0xA87 JUMP JUMPDEST PUSH1 0x40 MLOAD DUP1 SWAP2 SUB SWAP1 RETURN JUMPDEST CALLVALUE DUP1 ISZERO PUSH2 0x19A JUMPI PUSH0 PUSH0 REVERT JUMPDEST POP PUSH2 0x1A3 PUSH2 0x488 JUMP JUMPDEST PUSH1 0x40 MLOAD PUSH2 0x1B0 SWAP2 SWAP1 PUSH2 0xB0F JUMP JUMPDEST PUSH1 0x40 MLOAD DUP1 SWAP2 SUB SWAP1 RETURN JUMPDEST CALLVALUE DUP1 ISZERO PUSH2 0x1C4 JUMPI PUSH0 PUSH0 REVERT JUMPDEST POP PUSH2 0x1CD PUSH2 0x497 JUMP JUMPDEST STOP JUMPDEST CALLVALUE DUP1 ISZERO PUSH2 0x1DA JUMPI PUSH0 PUSH0 REVERT JUMPDEST POP PUSH2 0x1F5 PUSH1 0x4 DUP1 CALLDATASIZE SUB DUP2 ADD SWAP1 PUSH2 0x1F0 SWAP2 SWAP1 PUSH2 0xACA JUMP JUMPDEST PUSH2 0x654 JUMP JUMPDEST STOP JUMPDEST CALLVALUE DUP1 ISZERO PUSH2 0x202 JUMPI PUSH0 PUSH0 REVERT JUMPDEST POP PUSH2 0x20B PUSH2 0x71A JUMP JUMPDEST PUSH1 0x40 MLOAD PUSH2 0x218 SWAP2 SWAP1 PUSH2 0xB37 JUMP JUMPDEST PUSH1 0x40 MLOAD DUP1 SWAP2 SUB SWAP1 RETURN JUMPDEST CALLVALUE DUP1 ISZERO PUSH2 0x22C JUMPI PUSH0 PUSH0 REVERT JUMPDEST POP PUSH2 0x247 PUSH1 0x4 DUP1 CALLDATASIZE SUB DUP2 ADD SWAP1 PUSH2 0x242 SWAP2 SWAP1 PUSH2 0xA44 JUMP JUMPDEST PUSH2 0x73F JUMP JUMPDEST PUSH1 0x40 MLOAD PUSH2 0x254 SWAP2 SWAP1 PUSH2 0xB0F JUMP JUMPDEST PUSH1 0x40 MLOAD DUP1 SWAP2 SUB SWAP1 RETURN JUMPDEST CALLVALUE DUP1 ISZERO PUSH2 0x268 JUMPI PUSH0 PUSH0 REVERT JUMPDEST POP PUSH2 0x271 PUSH2 0x787 JUMP JUMPDEST PUSH1 0x40 MLOAD PUSH2 0x27E SWAP2 SWAP1 PUSH2 0xA87 JUMP JUMPDEST PUSH1 0x40 MLOAD DUP1 SWAP2 SUB SWAP1 RETURN JUMPDEST CALLVALUE DUP1 ISZERO PUSH2 0x292 JUMPI PUSH0 PUSH0 REVERT JUMPDEST POP PUSH2 0x2AD PUSH1 0x4 DUP1 CALLDATASIZE SUB DUP2 ADD SWAP1 PUSH2 0x2A8 SWAP2 SWAP1 PUSH2 0xACA JUMP JUMPDEST PUSH2 0x78C JUMP JUMPDEST PUSH1 0x40 MLOAD PUSH2 0x2BA SWAP2 SWAP1 PUSH2 0xA87 JUMP JUMPDEST PUSH1 0x40 MLOAD DUP1 SWAP2 SUB SWAP1 RETURN JUMPDEST PUSH2 0x2CB PUSH2 0x7A8 JUMP JUMPDEST STOP JUMPDEST CALLVALUE DUP1 ISZERO PUSH2 0x2D8 JUMPI PUSH0 PUSH0 REVERT JUMPDEST POP PUSH2 0x2E1 PUSH2 0x9E0 JUMP JUMPDEST PUSH1 0x40 MLOAD PUSH2 0x2EE SWAP2 SWAP1 PUSH2 0xA87 JUMP JUMPDEST PUSH1 0x40 MLOAD DUP1 SWAP2 SUB SWAP1 RETURN JUMPDEST PUSH0 TIMESTAMP PUSH1 0x3 PUSH0 DUP5 PUSH20 0xFFFFFFFFFFFFFFFFFFFFFFFFFFFFFFFFFFFFFFFF AND PUSH20 0xFFFFFFFFFFFFFFFFFFFFFFFFFFFFFFFFFFFFFFFF AND DUP2 MSTORE PUSH1 0x20 ADD SWAP1 DUP2 MSTORE PUSH1 0x20 ADD PUSH0 KECCAK256 SLOAD GT PUSH2 0x344 JUMPI PUSH0 SWAP1 POP PUSH2 0x390 JUMP JUMPDEST TIMESTAMP PUSH1 0x3 PUSH0 DUP5 PUSH20 0xFFFFFFFFFFFFFFFFFFFFFFFFFFFFFFFFFFFFFFFF AND PUSH20 0xFFFFFFFFFFFFFFFFFFFFFFFFFFFFFFFFFFFFFFFF AND DUP2 MSTORE PUSH1 0x20 ADD SWAP1 DUP2 MSTORE PUSH1 0x20 ADD PUSH0 KECCAK256 SLOAD PUSH2 0x38D SWAP2 SWAP1 PUSH2 0xB7D JUMP JUMPDEST SWAP1 POP JUMPDEST SWAP2 SWAP1 POP JUMP JUMPDEST PUSH0 SELFBALANCE SWAP1 POP SWAP1 JUMP JUMPDEST PUSH1 0x2 PUSH0 SWAP1 SLOAD SWAP1 PUSH2 0x100 EXP SWAP1 DIV PUSH20 0xFFFFFFFFFFFFFFFFFFFFFFFFFFFFFFFFFFFFFFFF AND PUSH20 0xFFFFFFFFFFFFFFFFFFFFFFFFFFFFFFFFFFFFFFFF AND CALLER PUSH20 0xFFFFFFFFFFFFFFFFFFFFFFFFFFFFFFFFFFFFFFFF AND EQ PUSH2 0x422 JUMPI PUSH1 0x40 MLOAD PUSH32 0x5FC483C500000000000000000000000000000000000000000000000000000000 DUP2 MSTORE PUSH1 0x4 ADD PUSH1 0x40 MLOAD DUP1 SWAP2 SUB SWAP1 REVERT JUMPDEST PUSH3 0x15180 DUP2 PUSH2 0x431 SWAP2 SWAP1 PUSH2 0xBB0 JUMP JUMPDEST PUSH1 0x1 DUP2 SWAP1 SSTORE POP PUSH32 0x91ABCC2D6823E3A3F11D31B208DD3065D2C6A791F1C7C9FE96A42CE12897EAC5 PUSH1 0x1 SLOAD PUSH1 0x40 MLOAD PUSH2 0x468 SWAP2 SWAP1 PUSH2 0xA87 JUMP JUMPDEST PUSH1 0x40 MLOAD DUP1 SWAP2 SUB SWAP1 LOG1 POP JUMP JUMPDEST PUSH1 0x3 PUSH1 0x20 MSTORE DUP1 PUSH0 MSTORE PUSH1 0x40 PUSH0 KECCAK256 PUSH0 SWAP2 POP SWAP1 POP SLOAD DUP2 JUMP JUMPDEST PUSH0 PUSH2 0x492 CALLER PUSH2 0x73F JUMP JUMPDEST SWAP1 POP SWAP1 JUMP JUMPDEST PUSH1 0x2 PUSH0 SWAP1 SLOAD SWAP1 PUSH2 0x100 EXP SWAP1 DIV PUSH20 0xFFFFFFFFFFFFFFFFFFFFFFFFFFFFFFFFFFFFFFFF AND PUSH20 0xFFFFFFFFFFFFFFFFFFFFFFFFFFFFFFFFFFFFFFFF AND CALLER PUSH20 0xFFFFFFFFFFFFFFFFFFFFFFFFFFFFFFFFFFFFFFFF AND EQ PUSH2 0x51D JUMPI PUSH1 0x40 MLOAD PUSH32 0x5FC483C500000000000000000000000000000000000000000000000000000000 DUP2 MSTORE PUSH1 0x4 ADD PUSH1 0x40 MLOAD DUP1 SWAP2 SUB SWAP1 REVERT JUMPDEST PUSH0 SELFBALANCE SWAP1 POP PUSH0 PUSH1 0x2 PUSH0 SWAP1 SLOAD SWAP1 PUSH2 0x100 EXP SWAP1 DIV PUSH20 0xFFFFFFFFFFFFFFFFFFFFFFFFFFFFFFFFFFFFFFFF AND PUSH20 0xFFFFFFFFFFFFFFFFFFFFFFFFFFFFFFFFFFFFFFFF AND DUP3 PUSH1 0x40 MLOAD PUSH2 0x567 SWAP1 PUSH2 0xC1E JUMP JUMPDEST PUSH0 PUSH1 0x40 MLOAD DUP1 DUP4 SUB DUP2 DUP6 DUP8 GAS CALL SWAP3 POP POP POP RETURNDATASIZE DUP1 PUSH0 DUP2 EQ PUSH2 0x5A1 JUMPI PUSH1 0x40 MLOAD SWAP2 POP PUSH1 0x1F NOT PUSH1 0x3F RETURNDATASIZE ADD AND DUP3 ADD PUSH1 0x40 MSTORE RETURNDATASIZE DUP3 MSTORE RETURNDATASIZE PUSH0 PUSH1 0x20 DUP5 ADD RETURNDATACOPY PUSH2 0x5A6 JUMP JUMPDEST PUSH1 0x60 SWAP2 POP JUMPDEST POP POP SWAP1 POP DUP1 PUSH2 0x5E1 JUMPI PUSH1 0x40 MLOAD PUSH32 0x27FCD9D100000000000000000000000000000000000000000000000000000000 DUP2 MSTORE PUSH1 0x4 ADD PUSH1 0x40 MLOAD DUP1 SWAP2 SUB SWAP1 REVERT JUMPDEST PUSH1 0x2 PUSH0 SWAP1 SLOAD SWAP1 PUSH2 0x100 EXP SWAP1 DIV PUSH20 0xFFFFFFFFFFFFFFFFFFFFFFFFFFFFFFFFFFFFFFFF AND PUSH20 0xFFFFFFFFFFFFFFFFFFFFFFFFFFFFFFFFFFFFFFFF AND PUSH32 0xEAFF4B37086828766AD3268786972C0CD24259D4C87A80F9D3963A3C3D999B0D DUP4 PUSH1 0x40 MLOAD PUSH2 0x648 SWAP2 SWAP1 PUSH2 0xA87 JUMP JUMPDEST PUSH1 0x40 MLOAD DUP1 SWAP2 SUB SWAP1 LOG2 POP POP JUMP JUMPDEST PUSH1 0x2 PUSH0 SWAP1 SLOAD SWAP1 PUSH2 0x100 EXP SWAP1 DIV PUSH20 0xFFFFFFFFFFFFFFFFFFFFFFFFFFFFFFFFFFFFFFFF AND PUSH20 0xFFFFFFFFFFFFFFFFFFFFFFFFFFFFFFFFFFFFFFFF AND CALLER PUSH20 0xFFFFFFFFFFFFFFFFFFFFFFFFFFFFFFFFFFFFFFFF AND EQ PUSH2 0x6DA JUMPI PUSH1 0x40 MLOAD PUSH32 0x5FC483C500000000000000000000000000000000000000000000000000000000 DUP2 MSTORE PUSH1 0x4 ADD PUSH1 0x40 MLOAD DUP1 SWAP2 SUB SWAP1 REVERT JUMPDEST DUP1 PUSH0 DUP2 SWAP1 SSTORE POP PUSH32 0x66CBCA4F3C64FECF1DCB9CE094ABCF7F68C3450A1D4E3A8E917DD621EDB4EBE0 DUP2 PUSH1 0x40 MLOAD PUSH2 0x70F SWAP2 SWAP1 PUSH2 0xA87 JUMP JUMPDEST PUSH1 0x40 MLOAD DUP1 SWAP2 SUB SWAP1 LOG1 POP JUMP JUMPDEST PUSH1 0x2 PUSH0 SWAP1 SLOAD SWAP1 PUSH2 0x100 EXP SWAP1 DIV PUSH20 0xFFFFFFFFFFFFFFFFFFFFFFFFFFFFFFFFFFFFFFFF AND DUP2 JUMP JUMPDEST PUSH0 TIMESTAMP PUSH1 0x3 PUSH0 DUP5 PUSH20 0xFFFFFFFFFFFFFFFFFFFFFFFFFFFFFFFFFFFFFFFF AND PUSH20 0xFFFFFFFFFFFFFFFFFFFFFFFFFFFFFFFFFFFFFFFF AND DUP2 MSTORE PUSH1 0x20 ADD SWAP1 DUP2 MSTORE PUSH1 0x20 ADD PUSH0 KECCAK256 SLOAD GT SWAP1 POP SWAP2 SWAP1 POP JUMP JUMPDEST PUSH0 SLOAD DUP2 JUMP JUMPDEST PUSH0 PUSH8 0xDE0B6B3A7640000 DUP3 PUSH2 0x7A1 SWAP2 SWAP1 PUSH2 0xC5F JUMP JUMPDEST SWAP1 POP SWAP2 SWAP1 POP JUMP JUMPDEST PUSH0 SLOAD CALLVALUE LT ISZERO PUSH2 0x7E3 JUMPI PUSH1 0x40 MLOAD PUSH32 0xCD1C886700000000000000000000000000000000000000000000000000000000 DUP2 MSTORE PUSH1 0x4 ADD PUSH1 0x40 MLOAD DUP1 SWAP2 SUB SWAP1 REVERT JUMPDEST PUSH0 TIMESTAMP PUSH1 0x3 PUSH0 CALLER PUSH20 0xFFFFFFFFFFFFFFFFFFFFFFFFFFFFFFFFFFFFFFFF AND PUSH20 0xFFFFFFFFFFFFFFFFFFFFFFFFFFFFFFFFFFFFFFFF AND DUP2 MSTORE PUSH1 0x20 ADD SWAP1 DUP2 MSTORE PUSH1 0x20 ADD PUSH0 KECCAK256 SLOAD GT ISZERO PUSH2 0x87B JUMPI PUSH1 0x1 SLOAD PUSH1 0x3 PUSH0 CALLER PUSH20 0xFFFFFFFFFFFFFFFFFFFFFFFFFFFFFFFFFFFFFFFF AND PUSH20 0xFFFFFFFFFFFFFFFFFFFFFFFFFFFFFFFFFFFFFFFF AND DUP2 MSTORE PUSH1 0x20 ADD SWAP1 DUP2 MSTORE PUSH1 0x20 ADD PUSH0 KECCAK256 SLOAD PUSH2 0x874 SWAP2 SWAP1 PUSH2 0xC8F JUMP JUMPDEST SWAP1 POP PUSH2 0x88C JUMP JUMPDEST PUSH1 0x1 SLOAD TIMESTAMP PUSH2 0x889 SWAP2 SWAP1 PUSH2 0xC8F JUMP JUMPDEST SWAP1 POP JUMPDEST DUP1 PUSH1 0x3 PUSH0 CALLER PUSH20 0xFFFFFFFFFFFFFFFFFFFFFFFFFFFFFFFFFFFFFFFF AND PUSH20 0xFFFFFFFFFFFFFFFFFFFFFFFFFFFFFFFFFFFFFFFF AND DUP2 MSTORE PUSH1 0x20 ADD SWAP1 DUP2 MSTORE PUSH1 0x20 ADD PUSH0 KECCAK256 DUP2 SWAP1 SSTORE POP CALLER PUSH20 0xFFFFFFFFFFFFFFFFFFFFFFFFFFFFFFFFFFFFFFFF AND PUSH32 0x2F60A1B621ACCECC3D569C39CABEB0D50D01EBD273E052479F9F539C6ABEAA73 DUP3 CALLVALUE PUSH1 0x40 MLOAD PUSH2 0x916 SWAP3 SWAP2 SWAP1 PUSH2 0xCC2 JUMP JUMPDEST PUSH1 0x40 MLOAD DUP1 SWAP2 SUB SWAP1 LOG2 PUSH0 SLOAD CALLVALUE GT ISZERO PUSH2 0x9DD JUMPI PUSH0 CALLER PUSH20 0xFFFFFFFFFFFFFFFFFFFFFFFFFFFFFFFFFFFFFFFF AND PUSH0 SLOAD CALLVALUE PUSH2 0x94C SWAP2 SWAP1 PUSH2 0xB7D JUMP JUMPDEST PUSH1 0x40 MLOAD PUSH2 0x958 SWAP1 PUSH2 0xC1E JUMP JUMPDEST PUSH0 PUSH1 0x40 MLOAD DUP1 DUP4 SUB DUP2 DUP6 DUP8 GAS CALL SWAP3 POP POP POP RETURNDATASIZE DUP1 PUSH0 DUP2 EQ PUSH2 0x992 JUMPI PUSH1 0x40 MLOAD SWAP2 POP PUSH1 0x1F NOT PUSH1 0x3F RETURNDATASIZE ADD AND DUP3 ADD PUSH1 0x40 MSTORE RETURNDATASIZE DUP3 MSTORE RETURNDATASIZE PUSH0 PUSH1 0x20 DUP5 ADD RETURNDATACOPY PUSH2 0x997 JUMP JUMPDEST PUSH1 0x60 SWAP2 POP JUMPDEST POP POP SWAP1 POP DUP1 PUSH2 0x9DB JUMPI PUSH1 0x40 MLOAD PUSH32 0x8C379A000000000000000000000000000000000000000000000000000000000 DUP2 MSTORE PUSH1 0x4 ADD PUSH2 0x9D2 SWAP1 PUSH2 0xD43 JUMP JUMPDEST PUSH1 0x40 MLOAD DUP1 SWAP2 SUB SWAP1 REVERT JUMPDEST POP JUMPDEST POP JUMP JUMPDEST PUSH1 0x1 SLOAD DUP2 JUMP JUMPDEST PUSH0 PUSH0 REVERT JUMPDEST PUSH0 PUSH20 0xFFFFFFFFFFFFFFFFFFFFFFFFFFFFFFFFFFFFFFFF DUP3 AND SWAP1 POP SWAP2 SWAP1 POP JUMP JUMPDEST PUSH0 PUSH2 0xA13 DUP3 PUSH2 0x9EA JUMP JUMPDEST SWAP1 POP SWAP2 SWAP1 POP JUMP JUMPDEST PUSH2 0xA23 DUP2 PUSH2 0xA09 JUMP JUMPDEST DUP2 EQ PUSH2 0xA2D JUMPI PUSH0 PUSH0 REVERT JUMPDEST POP JUMP JUMPDEST PUSH0 DUP2 CALLDATALOAD SWAP1 POP PUSH2 0xA3E DUP2 PUSH2 0xA1A JUMP JUMPDEST SWAP3 SWAP2 POP POP JUMP JUMPDEST PUSH0 PUSH1 0x20 DUP3 DUP5 SUB SLT ISZERO PUSH2 0xA59 JUMPI PUSH2 0xA58 PUSH2 0x9E6 JUMP JUMPDEST JUMPDEST PUSH0 PUSH2 0xA66 DUP5 DUP3 DUP6 ADD PUSH2 0xA30 JUMP JUMPDEST SWAP2 POP POP SWAP3 SWAP2 POP POP JUMP JUMPDEST PUSH0 DUP2 SWAP1 POP SWAP2 SWAP1 POP JUMP JUMPDEST PUSH2 0xA81 DUP2 PUSH2 0xA6F JUMP JUMPDEST DUP3 MSTORE POP POP JUMP JUMPDEST PUSH0 PUSH1 0x20 DUP3 ADD SWAP1 POP PUSH2 0xA9A PUSH0 DUP4 ADD DUP5 PUSH2 0xA78 JUMP JUMPDEST SWAP3 SWAP2 POP POP JUMP JUMPDEST PUSH2 0xAA9 DUP2 PUSH2 0xA6F JUMP JUMPDEST DUP2 EQ PUSH2 0xAB3 JUMPI PUSH0 PUSH0 REVERT JUMPDEST POP JUMP JUMPDEST PUSH0 DUP2 CALLDATALOAD SWAP1 POP PUSH2 0xAC4 DUP2 PUSH2 0xAA0 JUMP JUMPDEST SWAP3 SWAP2 POP POP JUMP JUMPDEST PUSH0 PUSH1 0x20 DUP3 DUP5 SUB SLT ISZERO PUSH2 0xADF JUMPI PUSH2 0xADE PUSH2 0x9E6 JUMP JUMPDEST JUMPDEST PUSH0 PUSH2 0xAEC DUP5 DUP3 DUP6 ADD PUSH2 0xAB6 JUMP JUMPDEST SWAP2 POP POP SWAP3 SWAP2 POP POP JUMP JUMPDEST PUSH0 DUP2 ISZERO ISZERO SWAP1 POP SWAP2 SWAP1 POP JUMP JUMPDEST PUSH2 0xB09 DUP2 PUSH2 0xAF5 JUMP JUMPDEST DUP3 MSTORE POP POP JUMP JUMPDEST PUSH0 PUSH1 0x20 DUP3 ADD SWAP1 POP PUSH2 0xB22 PUSH0 DUP4 ADD DUP5 PUSH2 0xB00 JUMP JUMPDEST SWAP3 SWAP2 POP POP JUMP JUMPDEST PUSH2 0xB31 DUP2 PUSH2 0xA09 JUMP JUMPDEST DUP3 MSTORE POP POP JUMP JUMPDEST PUSH0 PUSH1 0x20 DUP3 ADD SWAP1 POP PUSH2 0xB4A PUSH0 DUP4 ADD DUP5 PUSH2 0xB28 JUMP JUMPDEST SWAP3 SWAP2 POP POP JUMP JUMPDEST PUSH32 0x4E487B7100000000000000000000000000000000000000000000000000000000 PUSH0 MSTORE PUSH1 0x11 PUSH1 0x4 MSTORE PUSH1 0x24 PUSH0 REVERT JUMPDEST PUSH0 PUSH2 0xB87 DUP3 PUSH2 0xA6F JUMP JUMPDEST SWAP2 POP PUSH2 0xB92 DUP4 PUSH2 0xA6F JUMP JUMPDEST SWAP3 POP DUP3 DUP3 SUB SWAP1 POP DUP2 DUP2 GT ISZERO PUSH2 0xBAA JUMPI PUSH2 0xBA9 PUSH2 0xB50 JUMP JUMPDEST JUMPDEST SWAP3 SWAP2 POP POP JUMP JUMPDEST PUSH0 PUSH2 0xBBA DUP3 PUSH2 0xA6F JUMP JUMPDEST SWAP2 POP PUSH2 0xBC5 DUP4 PUSH2 0xA6F JUMP JUMPDEST SWAP3 POP DUP3 DUP3 MUL PUSH2 0xBD3 DUP2 PUSH2 0xA6F JUMP JUMPDEST SWAP2 POP DUP3 DUP3 DIV DUP5 EQ DUP4 ISZERO OR PUSH2 0xBEA JUMPI PUSH2 0xBE9 PUSH2 0xB50 JUMP JUMPDEST JUMPDEST POP SWAP3 SWAP2 POP POP JUMP JUMPDEST PUSH0 DUP2 SWAP1 POP SWAP3 SWAP2 POP POP JUMP JUMPDEST POP JUMP JUMPDEST PUSH0 PUSH2 0xC09 PUSH0 DUP4 PUSH2 0xBF1 JUMP JUMPDEST SWAP2 POP PUSH2 0xC14 DUP3 PUSH2 0xBFB JUMP JUMPDEST PUSH0 DUP3 ADD SWAP1 POP SWAP2 SWAP1 POP JUMP JUMPDEST PUSH0 PUSH2 0xC28 DUP3 PUSH2 0xBFE JUMP JUMPDEST SWAP2 POP DUP2 SWAP1 POP SWAP2 SWAP1 POP JUMP JUMPDEST PUSH32 0x4E487B7100000000000000000000000000000000000000000000000000000000 PUSH0 MSTORE PUSH1 0x12 PUSH1 0x4 MSTORE PUSH1 0x24 PUSH0 REVERT JUMPDEST PUSH0 PUSH2 0xC69 DUP3 PUSH2 0xA6F JUMP JUMPDEST SWAP2 POP PUSH2 0xC74 DUP4 PUSH2 0xA6F JUMP JUMPDEST SWAP3 POP DUP3 PUSH2 0xC84 JUMPI PUSH2 0xC83 PUSH2 0xC32 JUMP JUMPDEST JUMPDEST DUP3 DUP3 DIV SWAP1 POP SWAP3 SWAP2 POP POP JUMP JUMPDEST PUSH0 PUSH2 0xC99 DUP3 PUSH2 0xA6F JUMP JUMPDEST SWAP2 POP PUSH2 0xCA4 DUP4 PUSH2 0xA6F JUMP JUMPDEST SWAP3 POP DUP3 DUP3 ADD SWAP1 POP DUP1 DUP3 GT ISZERO PUSH2 0xCBC JUMPI PUSH2 0xCBB PUSH2 0xB50 JUMP JUMPDEST JUMPDEST SWAP3 SWAP2 POP POP JUMP JUMPDEST PUSH0 PUSH1 0x40 DUP3 ADD SWAP1 POP PUSH2 0xCD5 PUSH0 DUP4 ADD DUP6 PUSH2 0xA78 JUMP JUMPDEST PUSH2 0xCE2 PUSH1 0x20 DUP4 ADD DUP5 PUSH2 0xA78 JUMP JUMPDEST SWAP4 SWAP3 POP POP POP JUMP JUMPDEST PUSH0 DUP3 DUP3 MSTORE PUSH1 0x20 DUP3 ADD SWAP1 POP SWAP3 SWAP2 POP POP JUMP JUMPDEST PUSH32 0x526566756E64206661696C656400000000000000000000000000000000000000 PUSH0 DUP3 ADD MSTORE POP JUMP JUMPDEST PUSH0 PUSH2 0xD2D PUSH1 0xD DUP4 PUSH2 0xCE9 JUMP JUMPDEST SWAP2 POP PUSH2 0xD38 DUP3 PUSH2 0xCF9 JUMP JUMPDEST PUSH1 0x20 DUP3 ADD SWAP1 POP SWAP2 SWAP1 POP JUMP JUMPDEST PUSH0 PUSH1 0x20 DUP3 ADD SWAP1 POP DUP2 DUP2 SUB PUSH0 DUP4 ADD MSTORE PUSH2 0xD5A DUP2 PUSH2 0xD21 JUMP JUMPDEST SWAP1 POP SWAP2 SWAP1 POP JUMP INVALID LOG2 PUSH5 0x6970667358 0x22 SLT KECCAK256 PUSH6 0x35D9F5DD272B PUSH27 0x7DE8DB6FE548BAAD5610E609EB4B4AC9141795F27717DEC964736F PUSH13 0x634300081E0033000000000000 "
				},
				"gasEstimates": {
					"creation": {
						"codeDepositCost": "695800",
						"executionCost": "infinite",
						"totalCost": "infinite"
					},
					"external": {
						"buyPass()": "infinite",
						"getBalance()": "357",
						"getTimeRemaining(address)": "infinite",
						"hasAccess(address)": "2907",
						"myAccess()": "2661",
						"owner()": "2553",
						"passDuration()": "2513",
						"passExpiry(address)": "2869",
						"passPrice()": "2446",
						"updateDuration(uint256)": "infinite",
						"updatePrice(uint256)": "infinite",
						"weiToEther(uint256)": "infinite",
						"withdraw()": "infinite"
					}
				},
				"methodIdentifiers": {
					"buyPass()": "f5f7836c",
					"getBalance()": "12065fe0",
					"getTimeRemaining(address)": "0b0ad26a",
					"hasAccess(address)": "95a078e8",
					"myAccess()": "347594ed",
					"owner()": "8da5cb5b",
					"passDuration()": "f87de02d",
					"passExpiry(address)": "26484705",
					"passPrice()": "ca3286f5",
					"updateDuration(uint256)": "1b50ad09",
					"updatePrice(uint256)": "8d6cc56d",
					"weiToEther(uint256)": "d0eff891",
					"withdraw()": "3ccfd60b"
				}
			},
			"storageLayout": {
				"storage": [
					{
						"astId": 5,
						"contract": "contracts/NovaClassTicket.sol:NovaClassTicket",
						"label": "passPrice",
						"offset": 0,
						"slot": "0",
						"type": "t_uint256"
					},
					{
						"astId": 8,
						"contract": "contracts/NovaClassTicket.sol:NovaClassTicket",
						"label": "passDuration",
						"offset": 0,
						"slot": "1",
						"type": "t_uint256"
					},
					{
						"astId": 11,
						"contract": "contracts/NovaClassTicket.sol:NovaClassTicket",
						"label": "owner",
						"offset": 0,
						"slot": "2",
						"type": "t_address"
					},
					{
						"astId": 16,
						"contract": "contracts/NovaClassTicket.sol:NovaClassTicket",
						"label": "passExpiry",
						"offset": 0,
						"slot": "3",
						"type": "t_mapping(t_address,t_uint256)"
					}
				],
				"types": {
					"t_address": {
						"encoding": "inplace",
						"label": "address",
						"numberOfBytes": "20"
					},
					"t_mapping(t_address,t_uint256)": {
						"encoding": "mapping",
						"key": "t_address",
						"label": "mapping(address => uint256)",
						"numberOfBytes": "32",
						"value": "t_uint256"
					},
					"t_uint256": {
						"encoding": "inplace",
						"label": "uint256",
						"numberOfBytes": "32"
					}
				}
			},
			"userdoc": {
				"events": {
					"AccessPurchased(address,uint256,uint256)": {
						"notice": "Emitted when a user purchases an access pass"
					},
					"DurationUpdated(uint256)": {
						"notice": "Emitted when pass duration is updated"
					},
					"FundsWithdrawn(address,uint256)": {
						"notice": "Emitted when owner withdraws funds"
					},
					"PriceUpdated(uint256)": {
						"notice": "Emitted when pass price is updated"
					}
				},
				"kind": "user",
				"methods": {
					"buyPass()": {
						"notice": "Purchase an access pass"
					},
					"constructor": {
						"notice": "Initializes the contract with price and duration"
					},
					"getBalance()": {
						"notice": "Get contract balance"
					},
					"getTimeRemaining(address)": {
						"notice": "Get remaining time on a user's pass"
					},
					"hasAccess(address)": {
						"notice": "Check if an address has valid access"
					},
					"myAccess()": {
						"notice": "Check current user's access status"
					},
					"owner()": {
						"notice": "Contract owner address"
					},
					"passDuration()": {
						"notice": "Duration of access in seconds (e.g., 30 days = 30 * 24 * 60 * 60)"
					},
					"passExpiry(address)": {
						"notice": "Mapping from user address to pass expiry timestamp"
					},
					"passPrice()": {
						"notice": "Price to purchase an access pass (in wei)"
					},
					"updateDuration(uint256)": {
						"notice": "Update the duration of access passes"
					},
					"updatePrice(uint256)": {
						"notice": "Update the price of access passes"
					},
					"weiToEther(uint256)": {
						"notice": "Convert wei to ether for easy reading"
					},
					"withdraw()": {
						"notice": "Withdraw contract balance to owner"
					}
				},
				"notice": "Users can purchase access passes that expire after a set duration",
				"version": 1
			}
		}
	}
}